{
  "contractName": "AuxiliaryContract",
  "abi": [
    {
      "anonymous": false,
      "inputs": [
        {
          "indexed": false,
          "internalType": "address",
          "name": "user",
          "type": "address"
        },
        {
          "indexed": false,
          "internalType": "uint256",
          "name": "amount",
          "type": "uint256"
        }
      ],
      "name": "RewardGiven",
      "type": "event"
    },
    {
      "inputs": [
        {
          "internalType": "address",
          "name": "",
          "type": "address"
        }
      ],
      "name": "rewards",
      "outputs": [
        {
          "internalType": "uint256",
          "name": "",
          "type": "uint256"
        }
      ],
      "stateMutability": "view",
      "type": "function",
      "constant": true
    },
    {
      "inputs": [
        {
          "internalType": "address",
          "name": "_user",
          "type": "address"
        },
        {
          "internalType": "uint256",
          "name": "_amount",
          "type": "uint256"
        }
      ],
      "name": "giveReward",
      "outputs": [],
      "stateMutability": "nonpayable",
      "type": "function"
    },
    {
      "inputs": [
        {
          "internalType": "address",
          "name": "_user",
          "type": "address"
        }
      ],
      "name": "getReward",
      "outputs": [
        {
          "internalType": "uint256",
          "name": "",
          "type": "uint256"
        }
      ],
      "stateMutability": "view",
      "type": "function",
      "constant": true
    }
  ],
  "bytecode": "0x608060405234801561001057600080fd5b506103ca806100206000396000f3fe608060405234801561001057600080fd5b50600436106100415760003560e01c80630700037d14610046578063c00007b014610076578063ce8ae9f3146100a6575b600080fd5b610060600480360381019061005b91906101de565b6100c2565b60405161006d919061028a565b60405180910390f35b610090600480360381019061008b91906101de565b6100da565b60405161009d919061028a565b60405180910390f35b6100c060048036038101906100bb9190610207565b610122565b005b60006020528060005260406000206000915090505481565b60008060008373ffffffffffffffffffffffffffffffffffffffff1673ffffffffffffffffffffffffffffffffffffffff168152602001908152602001600020549050919050565b806000808473ffffffffffffffffffffffffffffffffffffffff1673ffffffffffffffffffffffffffffffffffffffff168152602001908152602001600020600082825461017091906102a5565b925050819055507f3ad0c8d1bbd63d54c5f14180eae95cab7c2420b2dbb90603a6e5d206668f52ec82826040516101a8929190610261565b60405180910390a15050565b6000813590506101c381610366565b92915050565b6000813590506101d88161037d565b92915050565b6000602082840312156101f057600080fd5b60006101fe848285016101b4565b91505092915050565b6000806040838503121561021a57600080fd5b6000610228858286016101b4565b9250506020610239858286016101c9565b9150509250929050565b61024c816102fb565b82525050565b61025b8161032d565b82525050565b60006040820190506102766000830185610243565b6102836020830184610252565b9392505050565b600060208201905061029f6000830184610252565b92915050565b60006102b08261032d565b91506102bb8361032d565b9250827fffffffffffffffffffffffffffffffffffffffffffffffffffffffffffffffff038211156102f0576102ef610337565b5b828201905092915050565b60006103068261030d565b9050919050565b600073ffffffffffffffffffffffffffffffffffffffff82169050919050565b6000819050919050565b7f4e487b7100000000000000000000000000000000000000000000000000000000600052601160045260246000fd5b61036f816102fb565b811461037a57600080fd5b50565b6103868161032d565b811461039157600080fd5b5056fea2646970667358221220b80505578316750f5e3909634086a6675c46b97a926bdaa5ee1add45f8a4f06064736f6c63430008000033",
  "immutableReferences": {},
  "source": "// SPDX-License-Identifier: MIT\r\npragma solidity ^0.8.0;\r\n\r\ncontract AuxiliaryContract {\r\n    // Simple reward mechanism (dummy)\r\n\r\n    mapping(address => uint) public rewards;\r\n\r\n    event RewardGiven(address user, uint amount);\r\n\r\n    function giveReward(address _user, uint _amount) public {\r\n        rewards[_user] += _amount;\r\n        emit RewardGiven(_user, _amount);\r\n    }\r\n\r\n    function getReward(address _user) public view returns (uint) {\r\n        return rewards[_user];\r\n    }\r\n}\r\n",
  "sourcePath": "D:\\BDA-simple\\Blockchain-pro\\contracts\\AuxiliaryContract.sol",
  "compiler": {
    "name": "solc",
    "version": "0.8.0+commit.c7dfd78e.Emscripten.clang"
  },
  "schemaVersion": "3.4.16",
  "updatedAt": "2025-05-28T11:10:49.182Z",
  "networkType": "ethereum",
  "devdoc": {
    "kind": "dev",
    "methods": {},
    "version": 1
  },
  "userdoc": {
    "kind": "user",
    "methods": {},
    "version": 1
  }
}