{
  "contractName": "ProductContract",
  "abi": [
    {
      "anonymous": false,
      "inputs": [
        {
          "indexed": false,
          "internalType": "uint256",
          "name": "productId",
          "type": "uint256"
        },
        {
          "indexed": false,
          "internalType": "address",
          "name": "commenter",
          "type": "address"
        },
        {
          "indexed": false,
          "internalType": "string",
          "name": "text",
          "type": "string"
        },
        {
          "indexed": false,
          "internalType": "uint8",
          "name": "rating",
          "type": "uint8"
        }
      ],
      "name": "CommentAdded",
      "type": "event"
    },
    {
      "anonymous": false,
      "inputs": [
        {
          "indexed": false,
          "internalType": "uint256",
          "name": "id",
          "type": "uint256"
        },
        {
          "indexed": false,
          "internalType": "string",
          "name": "name",
          "type": "string"
        }
      ],
      "name": "ProductAdded",
      "type": "event"
    },
    {
      "inputs": [],
      "name": "productCount",
      "outputs": [
        {
          "internalType": "uint256",
          "name": "",
          "type": "uint256"
        }
      ],
      "stateMutability": "view",
      "type": "function",
      "constant": true
    },
    {
      "inputs": [
        {
          "internalType": "uint256",
          "name": "",
          "type": "uint256"
        }
      ],
      "name": "products",
      "outputs": [
        {
          "internalType": "uint256",
          "name": "id",
          "type": "uint256"
        },
        {
          "internalType": "string",
          "name": "name",
          "type": "string"
        },
        {
          "internalType": "string",
          "name": "description",
          "type": "string"
        },
        {
          "internalType": "string",
          "name": "imageBase64",
          "type": "string"
        },
        {
          "internalType": "address",
          "name": "creator",
          "type": "address"
        },
        {
          "internalType": "uint256",
          "name": "price",
          "type": "uint256"
        },
        {
          "internalType": "uint256",
          "name": "totalRating",
          "type": "uint256"
        },
        {
          "internalType": "uint256",
          "name": "ratingCount",
          "type": "uint256"
        }
      ],
      "stateMutability": "view",
      "type": "function",
      "constant": true
    },
    {
      "inputs": [
        {
          "internalType": "string",
          "name": "_name",
          "type": "string"
        },
        {
          "internalType": "string",
          "name": "_description",
          "type": "string"
        },
        {
          "internalType": "string",
          "name": "_imageBase64",
          "type": "string"
        },
        {
          "internalType": "uint256",
          "name": "_price",
          "type": "uint256"
        }
      ],
      "name": "addProduct",
      "outputs": [],
      "stateMutability": "nonpayable",
      "type": "function"
    },
    {
      "inputs": [
        {
          "internalType": "uint256",
          "name": "_productId",
          "type": "uint256"
        },
        {
          "internalType": "string",
          "name": "_text",
          "type": "string"
        },
        {
          "internalType": "uint8",
          "name": "_rating",
          "type": "uint8"
        }
      ],
      "name": "addComment",
      "outputs": [],
      "stateMutability": "nonpayable",
      "type": "function"
    },
    {
      "inputs": [
        {
          "internalType": "uint256",
          "name": "_productId",
          "type": "uint256"
        }
      ],
      "name": "getComments",
      "outputs": [
        {
          "components": [
            {
              "internalType": "address",
              "name": "commenter",
              "type": "address"
            },
            {
              "internalType": "string",
              "name": "text",
              "type": "string"
            },
            {
              "internalType": "uint8",
              "name": "rating",
              "type": "uint8"
            }
          ],
          "internalType": "struct ProductContract.Comment[]",
          "name": "",
          "type": "tuple[]"
        }
      ],
      "stateMutability": "view",
      "type": "function",
      "constant": true
    },
    {
      "inputs": [
        {
          "internalType": "uint256",
          "name": "_productId",
          "type": "uint256"
        }
      ],
      "name": "getAverageRating",
      "outputs": [
        {
          "internalType": "uint256",
          "name": "",
          "type": "uint256"
        }
      ],
      "stateMutability": "view",
      "type": "function",
      "constant": true
    },
    {
      "inputs": [],
      "name": "getAllProducts",
      "outputs": [
        {
          "internalType": "uint256[]",
          "name": "ids",
          "type": "uint256[]"
        },
        {
          "internalType": "string[]",
          "name": "names",
          "type": "string[]"
        },
        {
          "internalType": "string[]",
          "name": "descriptions",
          "type": "string[]"
        },
        {
          "internalType": "string[]",
          "name": "imageBase64s",
          "type": "string[]"
        },
        {
          "internalType": "address[]",
          "name": "creators",
          "type": "address[]"
        },
        {
          "internalType": "uint256[]",
          "name": "avgRatings",
          "type": "uint256[]"
        },
        {
          "internalType": "uint256[]",
          "name": "prices",
          "type": "uint256[]"
        }
      ],
      "stateMutability": "view",
      "type": "function",
      "constant": true
    }
  ],
  "bytecode": "0x60806040526000805534801561001457600080fd5b50611bd6806100246000396000f3fe608060405234801561001057600080fd5b506004361061007d5760003560e01c806344b762691161005b57806344b76269146101065780637acc0b20146101225780638165fed514610159578063e0f6ef87146101755761007d565b806302ee3a521461008257806317b7e03e146100a657806323edf697146100d6575b600080fd5b61008a610193565b60405161009d97969594939291906115bc565b60405180910390f35b6100c060048036038101906100bb91906111b0565b610920565b6040516100cd919061167c565b60405180910390f35b6100f060048036038101906100eb91906111b0565b61096c565b6040516100fd919061159a565b60405180910390f35b610120600480360381019061011b91906111d9565b610ae6565b005b61013c600480360381019061013791906111b0565b610cb7565b604051610150989796959493929190611713565b60405180910390f35b610173600480360381019061016e9190611105565b610eb7565b005b61017d610fca565b60405161018a919061167c565b60405180910390f35b606080606080606080606060005467ffffffffffffffff8111156101e0577f4e487b7100000000000000000000000000000000000000000000000000000000600052604160045260246000fd5b60405190808252806020026020018201604052801561020e5781602001602082028036833780820191505090505b50965060005467ffffffffffffffff811115610253577f4e487b7100000000000000000000000000000000000000000000000000000000600052604160045260246000fd5b60405190808252806020026020018201604052801561028657816020015b60608152602001906001900390816102715790505b50955060005467ffffffffffffffff8111156102cb577f4e487b7100000000000000000000000000000000000000000000000000000000600052604160045260246000fd5b6040519080825280602002602001820160405280156102fe57816020015b60608152602001906001900390816102e95790505b50945060005467ffffffffffffffff811115610343577f4e487b7100000000000000000000000000000000000000000000000000000000600052604160045260246000fd5b60405190808252806020026020018201604052801561037657816020015b60608152602001906001900390816103615790505b50935060005467ffffffffffffffff8111156103bb577f4e487b7100000000000000000000000000000000000000000000000000000000600052604160045260246000fd5b6040519080825280602002602001820160405280156103e95781602001602082028036833780820191505090505b50925060005467ffffffffffffffff81111561042e577f4e487b7100000000000000000000000000000000000000000000000000000000600052604160045260246000fd5b60405190808252806020026020018201604052801561045c5781602001602082028036833780820191505090505b50915060005467ffffffffffffffff8111156104a1577f4e487b7100000000000000000000000000000000000000000000000000000000600052604160045260246000fd5b6040519080825280602002602001820160405280156104cf5781602001602082028036833780820191505090505b50905060005b6000548110156109165760006001600083815260200190815260200160002090508060000154898381518110610534577f4e487b7100000000000000000000000000000000000000000000000000000000600052603260045260246000fd5b60200260200101818152505080600101805461054f90611a2a565b80601f016020809104026020016040519081016040528092919081815260200182805461057b90611a2a565b80156105c85780601f1061059d576101008083540402835291602001916105c8565b820191906000526020600020905b8154815290600101906020018083116105ab57829003601f168201915b5050505050888381518110610606577f4e487b7100000000000000000000000000000000000000000000000000000000600052603260045260246000fd5b602002602001018190525080600201805461062090611a2a565b80601f016020809104026020016040519081016040528092919081815260200182805461064c90611a2a565b80156106995780601f1061066e57610100808354040283529160200191610699565b820191906000526020600020905b81548152906001019060200180831161067c57829003601f168201915b50505050508783815181106106d7577f4e487b7100000000000000000000000000000000000000000000000000000000600052603260045260246000fd5b60200260200101819052508060030180546106f190611a2a565b80601f016020809104026020016040519081016040528092919081815260200182805461071d90611a2a565b801561076a5780601f1061073f5761010080835404028352916020019161076a565b820191906000526020600020905b81548152906001019060200180831161074d57829003601f168201915b50505050508683815181106107a8577f4e487b7100000000000000000000000000000000000000000000000000000000600052603260045260246000fd5b60200260200101819052508060040160009054906101000a900473ffffffffffffffffffffffffffffffffffffffff16858381518110610811577f4e487b7100000000000000000000000000000000000000000000000000000000600052603260045260246000fd5b602002602001019073ffffffffffffffffffffffffffffffffffffffff16908173ffffffffffffffffffffffffffffffffffffffff16815250506000816007015414610870578060070154816006015461086b919061196e565b610873565b60005b8483815181106108ac577f4e487b7100000000000000000000000000000000000000000000000000000000600052603260045260246000fd5b60200260200101818152505080600501548383815181106108f6577f4e487b7100000000000000000000000000000000000000000000000000000000600052603260045260246000fd5b60200260200101818152505050808061090e90611a5c565b9150506104d5565b5090919293949596565b60008060016000848152602001908152602001600020905060008160070154141561094f576000915050610967565b80600701548160060154610963919061196e565b9150505b919050565b606060016000838152602001908152602001600020600801805480602002602001604051908101604052809291908181526020016000905b82821015610adb57838290600052602060002090600302016040518060600160405290816000820160009054906101000a900473ffffffffffffffffffffffffffffffffffffffff1673ffffffffffffffffffffffffffffffffffffffff1673ffffffffffffffffffffffffffffffffffffffff168152602001600182018054610a2d90611a2a565b80601f0160208091040260200160405190810160405280929190818152602001828054610a5990611a2a565b8015610aa65780601f10610a7b57610100808354040283529160200191610aa6565b820191906000526020600020905b815481529060010190602001808311610a8957829003601f168201915b505050505081526020016002820160009054906101000a900460ff1660ff1660ff1681525050815260200190600101906109a4565b505050509050919050565b60018160ff1610158015610afe575060058160ff1611155b610b3d576040517f08c379a0000000000000000000000000000000000000000000000000000000008152600401610b349061165c565b60405180910390fd5b60006001600085815260200190815260200160002090508060080160405180606001604052803373ffffffffffffffffffffffffffffffffffffffff1681526020018581526020018460ff16815250908060018154018082558091505060019003906000526020600020906003020160009091909190915060008201518160000160006101000a81548173ffffffffffffffffffffffffffffffffffffffff021916908373ffffffffffffffffffffffffffffffffffffffff1602179055506020820151816001019080519060200190610c18929190610fd0565b5060408201518160020160006101000a81548160ff021916908360ff16021790555050508160ff16816006016000828254610c539190611918565b92505081905550806007016000815480929190610c6f90611a5c565b91905055507f5a946ef60f5f27729c43db6534cb1d7e8b00a87b6b6e9687541625b36238970384338585604051610ca99493929190611697565b60405180910390a150505050565b6001602052806000526040600020600091509050806000015490806001018054610ce090611a2a565b80601f0160208091040260200160405190810160405280929190818152602001828054610d0c90611a2a565b8015610d595780601f10610d2e57610100808354040283529160200191610d59565b820191906000526020600020905b815481529060010190602001808311610d3c57829003601f168201915b505050505090806002018054610d6e90611a2a565b80601f0160208091040260200160405190810160405280929190818152602001828054610d9a90611a2a565b8015610de75780601f10610dbc57610100808354040283529160200191610de7565b820191906000526020600020905b815481529060010190602001808311610dca57829003601f168201915b505050505090806003018054610dfc90611a2a565b80601f0160208091040260200160405190810160405280929190818152602001828054610e2890611a2a565b8015610e755780601f10610e4a57610100808354040283529160200191610e75565b820191906000526020600020905b815481529060010190602001808311610e5857829003601f168201915b5050505050908060040160009054906101000a900473ffffffffffffffffffffffffffffffffffffffff16908060050154908060060154908060070154905088565b600060016000805481526020019081526020016000209050600054816000018190555084816001019080519060200190610ef2929190610fd0565b5083816002019080519060200190610f0b929190610fd0565b5082816003019080519060200190610f24929190610fd0565b50338160040160006101000a81548173ffffffffffffffffffffffffffffffffffffffff021916908373ffffffffffffffffffffffffffffffffffffffff1602179055508181600501819055507f259101de1f87b04b9ee0332ce5e3cc508014004bf283424aead6cd8692f5cf9860005486604051610fa49291906116e3565b60405180910390a1600080815480929190610fbe90611a5c565b91905055505050505050565b60005481565b828054610fdc90611a2a565b90600052602060002090601f016020900481019282610ffe5760008555611045565b82601f1061101757805160ff1916838001178555611045565b82800160010185558215611045579182015b82811115611044578251825591602001919060010190611029565b5b5090506110529190611056565b5090565b5b8082111561106f576000816000905550600101611057565b5090565b6000611086611081846117d7565b6117a6565b90508281526020810184848401111561109e57600080fd5b6110a98482856119e8565b509392505050565b600082601f8301126110c257600080fd5b81356110d2848260208601611073565b91505092915050565b6000813590506110ea81611b72565b92915050565b6000813590506110ff81611b89565b92915050565b6000806000806080858703121561111b57600080fd5b600085013567ffffffffffffffff81111561113557600080fd5b611141878288016110b1565b945050602085013567ffffffffffffffff81111561115e57600080fd5b61116a878288016110b1565b935050604085013567ffffffffffffffff81111561118757600080fd5b611193878288016110b1565b92505060606111a4878288016110db565b91505092959194509250565b6000602082840312156111c257600080fd5b60006111d0848285016110db565b91505092915050565b6000806000606084860312156111ee57600080fd5b60006111fc868287016110db565b935050602084013567ffffffffffffffff81111561121957600080fd5b611225868287016110b1565b9250506040611236868287016110f0565b9150509250925092565b600061124c8383611298565b60208301905092915050565b6000611264838361145c565b905092915050565b6000611278838361150e565b905092915050565b600061128c838361155e565b60208301905092915050565b6112a18161199f565b82525050565b6112b08161199f565b82525050565b60006112c182611847565b6112cb81856118b2565b93506112d683611807565b8060005b838110156113075781516112ee8882611240565b97506112f98361187e565b9250506001810190506112da565b5085935050505092915050565b600061131f82611852565b61132981856118c3565b93508360208202850161133b85611817565b8060005b8581101561137757848403895281516113588582611258565b94506113638361188b565b925060208a0199505060018101905061133f565b50829750879550505050505092915050565b60006113948261185d565b61139e81856118d4565b9350836020820285016113b085611827565b8060005b858110156113ec57848403895281516113cd858261126c565b94506113d883611898565b925060208a019950506001810190506113b4565b50829750879550505050505092915050565b600061140982611868565b61141381856118e5565b935061141e83611837565b8060005b8381101561144f5781516114368882611280565b9750611441836118a5565b925050600181019050611422565b5085935050505092915050565b600061146782611873565b61147181856118f6565b93506114818185602086016119f7565b61148a81611b61565b840191505092915050565b60006114a082611873565b6114aa8185611907565b93506114ba8185602086016119f7565b6114c381611b61565b840191505092915050565b60006114db601e83611907565b91507f526174696e67206d757374206265206265747765656e203120616e64203500006000830152602082019050919050565b60006060830160008301516115266000860182611298565b506020830151848203602086015261153e828261145c565b9150506040830151611553604086018261157c565b508091505092915050565b611567816119d1565b82525050565b611576816119d1565b82525050565b611585816119db565b82525050565b611594816119db565b82525050565b600060208201905081810360008301526115b48184611389565b905092915050565b600060e08201905081810360008301526115d6818a6113fe565b905081810360208301526115ea8189611314565b905081810360408301526115fe8188611314565b905081810360608301526116128187611314565b9050818103608083015261162681866112b6565b905081810360a083015261163a81856113fe565b905081810360c083015261164e81846113fe565b905098975050505050505050565b60006020820190508181036000830152611675816114ce565b9050919050565b6000602082019050611691600083018461156d565b92915050565b60006080820190506116ac600083018761156d565b6116b960208301866112a7565b81810360408301526116cb8185611495565b90506116da606083018461158b565b95945050505050565b60006040820190506116f8600083018561156d565b818103602083015261170a8184611495565b90509392505050565b600061010082019050611729600083018b61156d565b818103602083015261173b818a611495565b9050818103604083015261174f8189611495565b905081810360608301526117638188611495565b905061177260808301876112a7565b61177f60a083018661156d565b61178c60c083018561156d565b61179960e083018461156d565b9998505050505050505050565b6000604051905081810181811067ffffffffffffffff821117156117cd576117cc611b32565b5b8060405250919050565b600067ffffffffffffffff8211156117f2576117f1611b32565b5b601f19601f8301169050602081019050919050565b6000819050602082019050919050565b6000819050602082019050919050565b6000819050602082019050919050565b6000819050602082019050919050565b600081519050919050565b600081519050919050565b600081519050919050565b600081519050919050565b600081519050919050565b6000602082019050919050565b6000602082019050919050565b6000602082019050919050565b6000602082019050919050565b600082825260208201905092915050565b600082825260208201905092915050565b600082825260208201905092915050565b600082825260208201905092915050565b600082825260208201905092915050565b600082825260208201905092915050565b6000611923826119d1565b915061192e836119d1565b9250827fffffffffffffffffffffffffffffffffffffffffffffffffffffffffffffffff0382111561196357611962611aa5565b5b828201905092915050565b6000611979826119d1565b9150611984836119d1565b92508261199457611993611ad4565b5b828204905092915050565b60006119aa826119b1565b9050919050565b600073ffffffffffffffffffffffffffffffffffffffff82169050919050565b6000819050919050565b600060ff82169050919050565b82818337600083830152505050565b60005b83811015611a155780820151818401526020810190506119fa565b83811115611a24576000848401525b50505050565b60006002820490506001821680611a4257607f821691505b60208210811415611a5657611a55611b03565b5b50919050565b6000611a67826119d1565b91507fffffffffffffffffffffffffffffffffffffffffffffffffffffffffffffffff821415611a9a57611a99611aa5565b5b600182019050919050565b7f4e487b7100000000000000000000000000000000000000000000000000000000600052601160045260246000fd5b7f4e487b7100000000000000000000000000000000000000000000000000000000600052601260045260246000fd5b7f4e487b7100000000000000000000000000000000000000000000000000000000600052602260045260246000fd5b7f4e487b7100000000000000000000000000000000000000000000000000000000600052604160045260246000fd5b6000601f19601f8301169050919050565b611b7b816119d1565b8114611b8657600080fd5b50565b611b92816119db565b8114611b9d57600080fd5b5056fea2646970667358221220d4aca99c32129238e11043bdd859f4518eb2c1b470f6333ae3c90e870afc825d64736f6c63430008000033",
  "immutableReferences": {},
  "source": "// SPDX-License-Identifier: MIT\r\npragma solidity ^0.8.0;\r\n\r\ncontract ProductContract {\r\n    struct Comment {\r\n        address commenter;\r\n        string text;\r\n        uint8 rating;\r\n    }\r\n\r\n    struct Product {\r\n        uint256 id;\r\n        string name;\r\n        string description;\r\n        string imageBase64; // storing image in base64\r\n        address creator;\r\n        uint256 price;\r\n        uint256 totalRating;\r\n        uint256 ratingCount;\r\n        Comment[] comments;\r\n    }\r\n\r\n    uint256 public productCount = 0;\r\n    mapping(uint256 => Product) public products;\r\n\r\n    event ProductAdded(uint256 id, string name);\r\n    event CommentAdded(uint256 productId, address commenter, string text, uint8 rating);\r\n\r\n    function addProduct(string memory _name, string memory _description, string memory _imageBase64,uint256 _price) public {\r\n        Product storage newProduct = products[productCount];\r\n        newProduct.id = productCount;\r\n        newProduct.name = _name;\r\n        newProduct.description = _description;\r\n        newProduct.imageBase64 = _imageBase64;\r\n        newProduct.creator = msg.sender;\r\n        newProduct.price = _price;\r\n        emit ProductAdded(productCount, _name);\r\n        productCount++;\r\n    }\r\n\r\n    function addComment(uint256 _productId, string memory _text, uint8 _rating) public {\r\n        require(_rating >= 1 && _rating <= 5, \"Rating must be between 1 and 5\");\r\n        Product storage product = products[_productId];\r\n        product.comments.push(Comment(msg.sender, _text, _rating));\r\n        product.totalRating += _rating;\r\n        product.ratingCount++;\r\n        emit CommentAdded(_productId, msg.sender, _text, _rating);\r\n    }\r\n\r\n    function getComments(uint256 _productId) public view returns (Comment[] memory) {\r\n        return products[_productId].comments;\r\n    }\r\n\r\n    function getAverageRating(uint256 _productId) public view returns (uint256) {\r\n        Product storage product = products[_productId];\r\n        if (product.ratingCount == 0) return 0;\r\n        return product.totalRating / product.ratingCount;\r\n    }\r\n\r\n    //  NEW: Get All Products (excluding nested comments)\r\n    function getAllProducts()\r\n        public\r\n        view\r\n        returns (\r\n            uint256[] memory ids,\r\n            string[] memory names,\r\n            string[] memory descriptions,\r\n            string[] memory imageBase64s,\r\n            address[] memory creators,\r\n            uint256[] memory avgRatings,\r\n            uint256[] memory prices\r\n        )\r\n    {\r\n        ids = new uint256[](productCount);\r\n        names = new string[](productCount);\r\n        descriptions = new string[](productCount);\r\n        imageBase64s = new string[](productCount);\r\n        creators = new address[](productCount);\r\n        avgRatings = new uint256[](productCount);\r\n        prices = new uint256[](productCount);\r\n\r\n        for (uint256 i = 0; i < productCount; i++) {\r\n            Product storage p = products[i];\r\n            ids[i] = p.id;\r\n            names[i] = p.name;\r\n            descriptions[i] = p.description;\r\n            imageBase64s[i] = p.imageBase64;\r\n            creators[i] = p.creator;\r\n            avgRatings[i] = p.ratingCount == 0 ? 0 : (p.totalRating / p.ratingCount);\r\n            prices[i] = p.price; \r\n        }\r\n    }\r\n}\r\n",
  "sourcePath": "D:\\BDA-simple\\Blockchain-pro\\contracts\\ProductContract.sol",
  "compiler": {
    "name": "solc",
    "version": "0.8.0+commit.c7dfd78e.Emscripten.clang"
  },
  "schemaVersion": "3.4.16",
  "updatedAt": "2025-05-28T04:16:43.213Z",
  "networkType": "ethereum",
  "devdoc": {
    "kind": "dev",
    "methods": {},
    "version": 1
  },
  "userdoc": {
    "kind": "user",
    "methods": {},
    "version": 1
  }
}