{
  "contractName": "ProductContract",
  "abi": [
    {
      "anonymous": false,
      "inputs": [
        {
          "indexed": false,
          "internalType": "uint256",
          "name": "productId",
          "type": "uint256"
        },
        {
          "indexed": false,
          "internalType": "address",
          "name": "commenter",
          "type": "address"
        },
        {
          "indexed": false,
          "internalType": "string",
          "name": "commentText",
          "type": "string"
        },
        {
          "indexed": false,
          "internalType": "uint8",
          "name": "rating",
          "type": "uint8"
        }
      ],
      "name": "CommentAdded",
      "type": "event"
    },
    {
      "anonymous": false,
      "inputs": [
        {
          "indexed": false,
          "internalType": "uint256",
          "name": "productId",
          "type": "uint256"
        },
        {
          "indexed": false,
          "internalType": "string",
          "name": "name",
          "type": "string"
        },
        {
          "indexed": false,
          "internalType": "string",
          "name": "ipfsHash",
          "type": "string"
        }
      ],
      "name": "ProductAdded",
      "type": "event"
    },
    {
      "inputs": [
        {
          "internalType": "string",
          "name": "",
          "type": "string"
        },
        {
          "internalType": "uint256",
          "name": "",
          "type": "uint256"
        }
      ],
      "name": "keywordIndex",
      "outputs": [
        {
          "internalType": "uint256",
          "name": "",
          "type": "uint256"
        }
      ],
      "stateMutability": "view",
      "type": "function",
      "constant": true
    },
    {
      "inputs": [
        {
          "internalType": "uint256",
          "name": "",
          "type": "uint256"
        }
      ],
      "name": "products",
      "outputs": [
        {
          "internalType": "string",
          "name": "name",
          "type": "string"
        },
        {
          "internalType": "string",
          "name": "ipfsHash",
          "type": "string"
        }
      ],
      "stateMutability": "view",
      "type": "function",
      "constant": true
    },
    {
      "inputs": [
        {
          "internalType": "string",
          "name": "_name",
          "type": "string"
        },
        {
          "internalType": "string",
          "name": "_ipfsHash",
          "type": "string"
        }
      ],
      "name": "addProduct",
      "outputs": [],
      "stateMutability": "nonpayable",
      "type": "function"
    },
    {
      "inputs": [
        {
          "internalType": "uint256",
          "name": "_productId",
          "type": "uint256"
        },
        {
          "internalType": "string",
          "name": "_commentText",
          "type": "string"
        },
        {
          "internalType": "uint8",
          "name": "_rating",
          "type": "uint8"
        },
        {
          "internalType": "string",
          "name": "_ipfsHash",
          "type": "string"
        },
        {
          "internalType": "string",
          "name": "_keyword",
          "type": "string"
        }
      ],
      "name": "addComment",
      "outputs": [],
      "stateMutability": "nonpayable",
      "type": "function"
    },
    {
      "inputs": [
        {
          "internalType": "uint256",
          "name": "_productId",
          "type": "uint256"
        }
      ],
      "name": "getProduct",
      "outputs": [
        {
          "internalType": "string",
          "name": "",
          "type": "string"
        },
        {
          "internalType": "string",
          "name": "",
          "type": "string"
        },
        {
          "internalType": "uint256",
          "name": "",
          "type": "uint256"
        }
      ],
      "stateMutability": "view",
      "type": "function",
      "constant": true
    },
    {
      "inputs": [
        {
          "internalType": "uint256",
          "name": "_productId",
          "type": "uint256"
        },
        {
          "internalType": "uint256",
          "name": "_commentIndex",
          "type": "uint256"
        }
      ],
      "name": "getComment",
      "outputs": [
        {
          "internalType": "address",
          "name": "",
          "type": "address"
        },
        {
          "internalType": "string",
          "name": "",
          "type": "string"
        },
        {
          "internalType": "uint8",
          "name": "",
          "type": "uint8"
        },
        {
          "internalType": "string",
          "name": "",
          "type": "string"
        }
      ],
      "stateMutability": "view",
      "type": "function",
      "constant": true
    },
    {
      "inputs": [
        {
          "internalType": "string",
          "name": "_keyword",
          "type": "string"
        }
      ],
      "name": "searchByKeyword",
      "outputs": [
        {
          "internalType": "uint256[]",
          "name": "",
          "type": "uint256[]"
        }
      ],
      "stateMutability": "view",
      "type": "function",
      "constant": true
    },
    {
      "inputs": [],
      "name": "totalProducts",
      "outputs": [
        {
          "internalType": "uint256",
          "name": "",
          "type": "uint256"
        }
      ],
      "stateMutability": "view",
      "type": "function",
      "constant": true
    }
  ],
  "bytecode": "0x608060405234801561001057600080fd5b506114b9806100206000396000f3fe608060405234801561001057600080fd5b50600436106100885760003560e01c80639b9d326d1161005b5780639b9d326d1461013d578063b0424f301461015b578063b9db15b41461018b578063ca2efb55146101bd57610088565b80633835449b1461008d57806348892753146100bd5780637acc0b20146100f05780637c7c09a014610121575b600080fd5b6100a760048036038101906100a29190610c00565b6101d9565b6040516100b49190610feb565b60405180910390f35b6100d760048036038101906100d29190610de9565b61024f565b6040516100e79493929190610f98565b60405180910390f35b61010a60048036038101906101059190610d01565b610454565b60405161011892919061100d565b60405180910390f35b61013b60048036038101906101369190610d2a565b610598565b005b610145610800565b60405161015291906110a9565b60405180910390f35b61017560048036038101906101709190610cad565b61080c565b60405161018291906110a9565b60405180910390f35b6101a560048036038101906101a09190610d01565b610853565b6040516101b493929190611044565b60405180910390f35b6101d760048036038101906101d29190610c41565b6109d9565b005b60606001826040516101eb9190610f81565b908152602001604051809103902080548060200260200160405190810160405280929190818152602001828054801561024357602002820191906000526020600020905b81548152602001906001019080831161022f575b50505050509050919050565b60006060600060606000808781548110610292577f4e487b7100000000000000000000000000000000000000000000000000000000600052603260045260246000fd5b906000526020600020906003020160020186815481106102db577f4e487b7100000000000000000000000000000000000000000000000000000000600052603260045260246000fd5b906000526020600020906004020190508060000160009054906101000a900473ffffffffffffffffffffffffffffffffffffffff16816001018260020160009054906101000a900460ff168360030182805461033690611385565b80601f016020809104026020016040519081016040528092919081815260200182805461036290611385565b80156103af5780601f10610384576101008083540402835291602001916103af565b820191906000526020600020905b81548152906001019060200180831161039257829003601f168201915b505050505092508080546103c290611385565b80601f01602080910402602001604051908101604052809291908181526020018280546103ee90611385565b801561043b5780601f106104105761010080835404028352916020019161043b565b820191906000526020600020905b81548152906001019060200180831161041e57829003601f168201915b5050505050905094509450945094505092959194509250565b6000818154811061046457600080fd5b906000526020600020906003020160009150905080600001805461048790611385565b80601f01602080910402602001604051908101604052809291908181526020018280546104b390611385565b80156105005780601f106104d557610100808354040283529160200191610500565b820191906000526020600020905b8154815290600101906020018083116104e357829003601f168201915b50505050509080600101805461051590611385565b80601f016020809104026020016040519081016040528092919081815260200182805461054190611385565b801561058e5780601f106105635761010080835404028352916020019161058e565b820191906000526020600020905b81548152906001019060200180831161057157829003601f168201915b5050505050905082565b60018360ff16101580156105b0575060058360ff1611155b6105ef576040517f08c379a00000000000000000000000000000000000000000000000000000000081526004016105e690611089565b60405180910390fd5b600080868154811061062a577f4e487b7100000000000000000000000000000000000000000000000000000000600052603260045260246000fd5b906000526020600020906003020190508060020160405180608001604052803373ffffffffffffffffffffffffffffffffffffffff1681526020018781526020018660ff16815260200185815250908060018154018082558091505060019003906000526020600020906004020160009091909190915060008201518160000160006101000a81548173ffffffffffffffffffffffffffffffffffffffff021916908373ffffffffffffffffffffffffffffffffffffffff1602179055506020820151816001019080519060200190610704929190610acb565b5060408201518160020160006101000a81548160ff021916908360ff1602179055506060820151816003019080519060200190610742929190610acb565b50505060006001826002018054905061075b91906112c6565b905060018360405161076d9190610f81565b9081526020016040518091039020816103e88961078a919061126c565b6107949190611216565b90806001815401808255809150506001900390600052602060002001600090919091909150557f5a946ef60f5f27729c43db6534cb1d7e8b00a87b6b6e9687541625b362389703873388886040516107ef94939291906110c4565b60405180910390a150505050505050565b60008080549050905090565b600182805160208101820180518482526020830160208501208183528095505050505050818154811061083e57600080fd5b90600052602060002001600091509150505481565b60608060008060008581548110610893577f4e487b7100000000000000000000000000000000000000000000000000000000600052603260045260246000fd5b90600052602060002090600302019050806000018160010182600201805490508280546108bf90611385565b80601f01602080910402602001604051908101604052809291908181526020018280546108eb90611385565b80156109385780601f1061090d57610100808354040283529160200191610938565b820191906000526020600020905b81548152906001019060200180831161091b57829003601f168201915b5050505050925081805461094b90611385565b80601f016020809104026020016040519081016040528092919081815260200182805461097790611385565b80156109c45780601f10610999576101008083540402835291602001916109c4565b820191906000526020600020905b8154815290600101906020018083116109a757829003601f168201915b50505050509150935093509350509193909250565b60006001816001815401808255809150500390600052602060002090505060006001600080549050610a0b91906112c6565b90506000808281548110610a48577f4e487b7100000000000000000000000000000000000000000000000000000000600052603260045260246000fd5b9060005260206000209060030201905083816000019080519060200190610a70929190610acb565b5082816001019080519060200190610a89929190610acb565b507fb0b1b5b61bc0dbb800dfdecd756ac304fe33d3a63c2ac5dc419452555c99a829828585604051610abd93929190611110565b60405180910390a150505050565b828054610ad790611385565b90600052602060002090601f016020900481019282610af95760008555610b40565b82601f10610b1257805160ff1916838001178555610b40565b82800160010185558215610b40579182015b82811115610b3f578251825591602001919060010190610b24565b5b509050610b4d9190610b51565b5090565b5b80821115610b6a576000816000905550600101610b52565b5090565b6000610b81610b7c84611186565b611155565b905082815260208101848484011115610b9957600080fd5b610ba4848285611343565b509392505050565b600082601f830112610bbd57600080fd5b8135610bcd848260208601610b6e565b91505092915050565b600081359050610be581611455565b92915050565b600081359050610bfa8161146c565b92915050565b600060208284031215610c1257600080fd5b600082013567ffffffffffffffff811115610c2c57600080fd5b610c3884828501610bac565b91505092915050565b60008060408385031215610c5457600080fd5b600083013567ffffffffffffffff811115610c6e57600080fd5b610c7a85828601610bac565b925050602083013567ffffffffffffffff811115610c9757600080fd5b610ca385828601610bac565b9150509250929050565b60008060408385031215610cc057600080fd5b600083013567ffffffffffffffff811115610cda57600080fd5b610ce685828601610bac565b9250506020610cf785828601610bd6565b9150509250929050565b600060208284031215610d1357600080fd5b6000610d2184828501610bd6565b91505092915050565b600080600080600060a08688031215610d4257600080fd5b6000610d5088828901610bd6565b955050602086013567ffffffffffffffff811115610d6d57600080fd5b610d7988828901610bac565b9450506040610d8a88828901610beb565b935050606086013567ffffffffffffffff811115610da757600080fd5b610db388828901610bac565b925050608086013567ffffffffffffffff811115610dd057600080fd5b610ddc88828901610bac565b9150509295509295909350565b60008060408385031215610dfc57600080fd5b6000610e0a85828601610bd6565b9250506020610e1b85828601610bd6565b9150509250929050565b6000610e318383610f54565b60208301905092915050565b610e46816112fa565b82525050565b6000610e57826111c6565b610e6181856111e9565b9350610e6c836111b6565b8060005b83811015610e9d578151610e848882610e25565b9750610e8f836111dc565b925050600181019050610e70565b5085935050505092915050565b6000610eb5826111d1565b610ebf81856111fa565b9350610ecf818560208601611352565b610ed881611444565b840191505092915050565b6000610eee826111d1565b610ef8818561120b565b9350610f08818560208601611352565b80840191505092915050565b6000610f216012836111fa565b91507f526174696e67206d75737420626520312d3500000000000000000000000000006000830152602082019050919050565b610f5d8161132c565b82525050565b610f6c8161132c565b82525050565b610f7b81611336565b82525050565b6000610f8d8284610ee3565b915081905092915050565b6000608082019050610fad6000830187610e3d565b8181036020830152610fbf8186610eaa565b9050610fce6040830185610f72565b8181036060830152610fe08184610eaa565b905095945050505050565b600060208201905081810360008301526110058184610e4c565b905092915050565b600060408201905081810360008301526110278185610eaa565b9050818103602083015261103b8184610eaa565b90509392505050565b6000606082019050818103600083015261105e8186610eaa565b905081810360208301526110728185610eaa565b90506110816040830184610f63565b949350505050565b600060208201905081810360008301526110a281610f14565b9050919050565b60006020820190506110be6000830184610f63565b92915050565b60006080820190506110d96000830187610f63565b6110e66020830186610e3d565b81810360408301526110f88185610eaa565b90506111076060830184610f72565b95945050505050565b60006060820190506111256000830186610f63565b81810360208301526111378185610eaa565b9050818103604083015261114b8184610eaa565b9050949350505050565b6000604051905081810181811067ffffffffffffffff8211171561117c5761117b611415565b5b8060405250919050565b600067ffffffffffffffff8211156111a1576111a0611415565b5b601f19601f8301169050602081019050919050565b6000819050602082019050919050565b600081519050919050565b600081519050919050565b6000602082019050919050565b600082825260208201905092915050565b600082825260208201905092915050565b600081905092915050565b60006112218261132c565b915061122c8361132c565b9250827fffffffffffffffffffffffffffffffffffffffffffffffffffffffffffffffff03821115611261576112606113b7565b5b828201905092915050565b60006112778261132c565b91506112828361132c565b9250817fffffffffffffffffffffffffffffffffffffffffffffffffffffffffffffffff04831182151516156112bb576112ba6113b7565b5b828202905092915050565b60006112d18261132c565b91506112dc8361132c565b9250828210156112ef576112ee6113b7565b5b828203905092915050565b60006113058261130c565b9050919050565b600073ffffffffffffffffffffffffffffffffffffffff82169050919050565b6000819050919050565b600060ff82169050919050565b82818337600083830152505050565b60005b83811015611370578082015181840152602081019050611355565b8381111561137f576000848401525b50505050565b6000600282049050600182168061139d57607f821691505b602082108114156113b1576113b06113e6565b5b50919050565b7f4e487b7100000000000000000000000000000000000000000000000000000000600052601160045260246000fd5b7f4e487b7100000000000000000000000000000000000000000000000000000000600052602260045260246000fd5b7f4e487b7100000000000000000000000000000000000000000000000000000000600052604160045260246000fd5b6000601f19601f8301169050919050565b61145e8161132c565b811461146957600080fd5b50565b61147581611336565b811461148057600080fd5b5056fea26469706673582212207cd92ee72ef4094b9da42a57c42e621fab33ac92e7adc6b7ecf2a767bdcd061c64736f6c63430008000033",
  "immutableReferences": {},
  "source": "// SPDX-License-Identifier: MIT\r\npragma solidity ^0.8.0;\r\n\r\ncontract ProductContract {\r\n    struct Comment {\r\n        address commenter;\r\n        string commentText;\r\n        uint8 rating; // 1-5\r\n        string ipfsHash;\r\n    }\r\n\r\n    struct Product {\r\n        string name;\r\n        string ipfsHash; // product info stored on IPFS (simulate with a string)\r\n        Comment[] comments;\r\n    }\r\n\r\n    Product[] public products;\r\n\r\n    // keyword => list of comment indexes (simulate simple keyword mapping)\r\n    mapping(string => uint[]) public keywordIndex;\r\n\r\n    event ProductAdded(uint productId, string name, string ipfsHash);\r\n    event CommentAdded(uint productId, address commenter, string commentText, uint8 rating);\r\n\r\n    function addProduct(string memory _name, string memory _ipfsHash) public {\r\n        products.push();\r\n        uint productId = products.length - 1;\r\n        Product storage p = products[productId];\r\n        p.name = _name;\r\n        p.ipfsHash = _ipfsHash;\r\n        emit ProductAdded(productId, _name, _ipfsHash);\r\n    }\r\n\r\n    function addComment(uint _productId, string memory _commentText, uint8 _rating, string memory _ipfsHash, string memory _keyword) public {\r\n        require(_rating >= 1 && _rating <= 5, \"Rating must be 1-5\");\r\n        Product storage p = products[_productId];\r\n        p.comments.push(Comment(msg.sender, _commentText, _rating, _ipfsHash));\r\n        uint commentIndex = p.comments.length - 1;\r\n        keywordIndex[_keyword].push(_productId * 1000 + commentIndex); // simple way to store ref\r\n        emit CommentAdded(_productId, msg.sender, _commentText, _rating);\r\n    }\r\n\r\n    function getProduct(uint _productId) public view returns (string memory, string memory, uint) {\r\n        Product storage p = products[_productId];\r\n        return (p.name, p.ipfsHash, p.comments.length);\r\n    }\r\n\r\n    function getComment(uint _productId, uint _commentIndex) public view returns (address, string memory, uint8, string memory) {\r\n        Comment storage c = products[_productId].comments[_commentIndex];\r\n        return (c.commenter, c.commentText, c.rating, c.ipfsHash);\r\n    }\r\n\r\n    function searchByKeyword(string memory _keyword) public view returns (uint[] memory) {\r\n        return keywordIndex[_keyword];\r\n    }\r\n\r\n    function totalProducts() public view returns (uint) {\r\n        return products.length;\r\n    }\r\n}\r\n",
  "sourcePath": "D:\\BDA-simple\\Blockchain-pro\\contracts\\ProductContract.sol",
  "compiler": {
    "name": "solc",
    "version": "0.8.0+commit.c7dfd78e.Emscripten.clang"
  },
  "schemaVersion": "3.4.16",
  "updatedAt": "2025-05-27T02:42:05.039Z",
  "networkType": "ethereum",
  "devdoc": {
    "kind": "dev",
    "methods": {},
    "version": 1
  },
  "userdoc": {
    "kind": "user",
    "methods": {},
    "version": 1
  }
}