{
  "contractName": "ProductContract",
  "abi": [
    {
      "inputs": [],
      "stateMutability": "nonpayable",
      "type": "constructor"
    },
    {
      "anonymous": false,
      "inputs": [
        {
          "indexed": false,
          "internalType": "uint256",
          "name": "productId",
          "type": "uint256"
        },
        {
          "indexed": false,
          "internalType": "address",
          "name": "commenter",
          "type": "address"
        },
        {
          "indexed": false,
          "internalType": "string",
          "name": "commenterId",
          "type": "string"
        },
        {
          "indexed": false,
          "internalType": "string",
          "name": "text",
          "type": "string"
        },
        {
          "indexed": false,
          "internalType": "uint8",
          "name": "rating",
          "type": "uint8"
        }
      ],
      "name": "CommentAdded",
      "type": "event"
    },
    {
      "anonymous": false,
      "inputs": [
        {
          "indexed": false,
          "internalType": "uint256",
          "name": "id",
          "type": "uint256"
        },
        {
          "indexed": false,
          "internalType": "string",
          "name": "name",
          "type": "string"
        }
      ],
      "name": "ProductAdded",
      "type": "event"
    },
    {
      "anonymous": false,
      "inputs": [
        {
          "indexed": false,
          "internalType": "uint256",
          "name": "productId",
          "type": "uint256"
        }
      ],
      "name": "ProductDeleted",
      "type": "event"
    },
    {
      "anonymous": false,
      "inputs": [
        {
          "indexed": false,
          "internalType": "address",
          "name": "userAddress",
          "type": "address"
        },
        {
          "indexed": false,
          "internalType": "string",
          "name": "userId",
          "type": "string"
        }
      ],
      "name": "UserRegistered",
      "type": "event"
    },
    {
      "inputs": [],
      "name": "adminAddress",
      "outputs": [
        {
          "internalType": "address",
          "name": "",
          "type": "address"
        }
      ],
      "stateMutability": "view",
      "type": "function",
      "constant": true
    },
    {
      "inputs": [],
      "name": "productCount",
      "outputs": [
        {
          "internalType": "uint256",
          "name": "",
          "type": "uint256"
        }
      ],
      "stateMutability": "view",
      "type": "function",
      "constant": true
    },
    {
      "inputs": [
        {
          "internalType": "uint256",
          "name": "",
          "type": "uint256"
        }
      ],
      "name": "products",
      "outputs": [
        {
          "internalType": "uint256",
          "name": "id",
          "type": "uint256"
        },
        {
          "internalType": "string",
          "name": "name",
          "type": "string"
        },
        {
          "internalType": "string",
          "name": "description",
          "type": "string"
        },
        {
          "internalType": "string",
          "name": "imageBase64",
          "type": "string"
        },
        {
          "internalType": "address",
          "name": "creator",
          "type": "address"
        },
        {
          "internalType": "uint256",
          "name": "price",
          "type": "uint256"
        },
        {
          "internalType": "uint256",
          "name": "totalRating",
          "type": "uint256"
        },
        {
          "internalType": "uint256",
          "name": "ratingCount",
          "type": "uint256"
        },
        {
          "internalType": "bool",
          "name": "exists",
          "type": "bool"
        }
      ],
      "stateMutability": "view",
      "type": "function",
      "constant": true
    },
    {
      "inputs": [
        {
          "internalType": "address",
          "name": "",
          "type": "address"
        }
      ],
      "name": "users",
      "outputs": [
        {
          "internalType": "string",
          "name": "userId",
          "type": "string"
        },
        {
          "internalType": "bool",
          "name": "isRegistered",
          "type": "bool"
        }
      ],
      "stateMutability": "view",
      "type": "function",
      "constant": true
    },
    {
      "inputs": [
        {
          "internalType": "string",
          "name": "_userId",
          "type": "string"
        }
      ],
      "name": "registerUser",
      "outputs": [],
      "stateMutability": "nonpayable",
      "type": "function"
    },
    {
      "inputs": [],
      "name": "loginUser",
      "outputs": [
        {
          "internalType": "string",
          "name": "",
          "type": "string"
        }
      ],
      "stateMutability": "view",
      "type": "function",
      "constant": true
    },
    {
      "inputs": [
        {
          "internalType": "string",
          "name": "_name",
          "type": "string"
        },
        {
          "internalType": "string",
          "name": "_description",
          "type": "string"
        },
        {
          "internalType": "string",
          "name": "_imageBase64",
          "type": "string"
        },
        {
          "internalType": "uint256",
          "name": "_price",
          "type": "uint256"
        }
      ],
      "name": "addProduct",
      "outputs": [],
      "stateMutability": "nonpayable",
      "type": "function"
    },
    {
      "inputs": [
        {
          "internalType": "uint256",
          "name": "_productId",
          "type": "uint256"
        },
        {
          "internalType": "string",
          "name": "_text",
          "type": "string"
        },
        {
          "internalType": "uint8",
          "name": "_rating",
          "type": "uint8"
        }
      ],
      "name": "addComment",
      "outputs": [],
      "stateMutability": "nonpayable",
      "type": "function"
    },
    {
      "inputs": [
        {
          "internalType": "uint256",
          "name": "_productId",
          "type": "uint256"
        }
      ],
      "name": "getComments",
      "outputs": [
        {
          "components": [
            {
              "internalType": "string",
              "name": "commenterId",
              "type": "string"
            },
            {
              "internalType": "string",
              "name": "text",
              "type": "string"
            },
            {
              "internalType": "uint8",
              "name": "rating",
              "type": "uint8"
            }
          ],
          "internalType": "struct ProductContract.Comment[]",
          "name": "",
          "type": "tuple[]"
        }
      ],
      "stateMutability": "view",
      "type": "function",
      "constant": true
    },
    {
      "inputs": [
        {
          "internalType": "uint256",
          "name": "_productId",
          "type": "uint256"
        }
      ],
      "name": "getAverageRating",
      "outputs": [
        {
          "internalType": "uint256",
          "name": "",
          "type": "uint256"
        }
      ],
      "stateMutability": "view",
      "type": "function",
      "constant": true
    },
    {
      "inputs": [
        {
          "internalType": "uint256",
          "name": "productId",
          "type": "uint256"
        }
      ],
      "name": "deleteProduct",
      "outputs": [],
      "stateMutability": "nonpayable",
      "type": "function"
    },
    {
      "inputs": [],
      "name": "getAllProducts",
      "outputs": [
        {
          "internalType": "uint256[]",
          "name": "ids",
          "type": "uint256[]"
        },
        {
          "internalType": "string[]",
          "name": "names",
          "type": "string[]"
        },
        {
          "internalType": "string[]",
          "name": "descriptions",
          "type": "string[]"
        },
        {
          "internalType": "string[]",
          "name": "imageBase64s",
          "type": "string[]"
        },
        {
          "internalType": "address[]",
          "name": "creators",
          "type": "address[]"
        },
        {
          "internalType": "uint256[]",
          "name": "avgRatings",
          "type": "uint256[]"
        },
        {
          "internalType": "uint256[]",
          "name": "prices",
          "type": "uint256[]"
        }
      ],
      "stateMutability": "view",
      "type": "function",
      "constant": true
    }
  ],
  "bytecode": "0x60806040526000805534801561001457600080fd5b5033600260006101000a81548173ffffffffffffffffffffffffffffffffffffffff021916908373ffffffffffffffffffffffffffffffffffffffff1602179055506129a4806100656000396000f3fe608060405234801561001057600080fd5b50600436106100b45760003560e01c80638165fed5116100715780638165fed5146101ad578063a19ed686146101c9578063a87430ba146101e7578063e0f6ef8714610218578063ed90c7b714610236578063fc6f946814610252576100b4565b806302ee3a52146100b957806317b7e03e146100dd57806323edf6971461010d57806344b762691461013d578063704f1b94146101595780637acc0b2014610175575b600080fd5b6100c1610270565b6040516100d4979695949392919061223c565b60405180910390f35b6100f760048036038101906100f29190611c0f565b610a88565b60405161010491906123ee565b60405180910390f35b61012760048036038101906101229190611c0f565b610b7b565b604051610134919061221a565b60405180910390f35b61015760048036038101906101529190611c38565b610d94565b005b610173600480360381019061016e9190611b23565b611168565b005b61018f600480360381019061018a9190611c0f565b6112cb565b6040516101a49998979695949392919061249a565b60405180910390f35b6101c760048036038101906101c29190611b64565b6114de565b005b6101d161160e565b6040516101de91906122dc565b60405180910390f35b61020160048036038101906101fc9190611afa565b61176f565b60405161020f9291906122fe565b60405180910390f35b610220611828565b60405161022d91906123ee565b60405180910390f35b610250600480360381019061024b9190611c0f565b61182e565b005b61025a61198a565b60405161026791906121cf565b60405180910390f35b60608060608060608060606000805b6000548110156102d4576001600082815260200190815260200160002060090160009054906101000a900460ff16156102c15781806102bd90612813565b9250505b80806102cc90612813565b91505061027f565b508067ffffffffffffffff811115610315577f4e487b7100000000000000000000000000000000000000000000000000000000600052604160045260246000fd5b6040519080825280602002602001820160405280156103435781602001602082028036833780820191505090505b5097508067ffffffffffffffff811115610386577f4e487b7100000000000000000000000000000000000000000000000000000000600052604160045260246000fd5b6040519080825280602002602001820160405280156103b957816020015b60608152602001906001900390816103a45790505b5096508067ffffffffffffffff8111156103fc577f4e487b7100000000000000000000000000000000000000000000000000000000600052604160045260246000fd5b60405190808252806020026020018201604052801561042f57816020015b606081526020019060019003908161041a5790505b5095508067ffffffffffffffff811115610472577f4e487b7100000000000000000000000000000000000000000000000000000000600052604160045260246000fd5b6040519080825280602002602001820160405280156104a557816020015b60608152602001906001900390816104905790505b5094508067ffffffffffffffff8111156104e8577f4e487b7100000000000000000000000000000000000000000000000000000000600052604160045260246000fd5b6040519080825280602002602001820160405280156105165781602001602082028036833780820191505090505b5093508067ffffffffffffffff811115610559577f4e487b7100000000000000000000000000000000000000000000000000000000600052604160045260246000fd5b6040519080825280602002602001820160405280156105875781602001602082028036833780820191505090505b5092508067ffffffffffffffff8111156105ca577f4e487b7100000000000000000000000000000000000000000000000000000000600052604160045260246000fd5b6040519080825280602002602001820160405280156105f85781602001602082028036833780820191505090505b5091506000805b600054811015610a7c576001600082815260200190815260200160002060090160009054906101000a900460ff1661063657610a69565b600060016000838152602001908152602001600020905080600001548b848151811061068b577f4e487b7100000000000000000000000000000000000000000000000000000000600052603260045260246000fd5b6020026020010181815250508060010180546106a6906127e1565b80601f01602080910402602001604051908101604052809291908181526020018280546106d2906127e1565b801561071f5780601f106106f45761010080835404028352916020019161071f565b820191906000526020600020905b81548152906001019060200180831161070257829003601f168201915b50505050508a848151811061075d577f4e487b7100000000000000000000000000000000000000000000000000000000600052603260045260246000fd5b6020026020010181905250806002018054610777906127e1565b80601f01602080910402602001604051908101604052809291908181526020018280546107a3906127e1565b80156107f05780601f106107c5576101008083540402835291602001916107f0565b820191906000526020600020905b8154815290600101906020018083116107d357829003601f168201915b505050505089848151811061082e577f4e487b7100000000000000000000000000000000000000000000000000000000600052603260045260246000fd5b6020026020010181905250806003018054610848906127e1565b80601f0160208091040260200160405190810160405280929190818152602001828054610874906127e1565b80156108c15780601f10610896576101008083540402835291602001916108c1565b820191906000526020600020905b8154815290600101906020018083116108a457829003601f168201915b50505050508884815181106108ff577f4e487b7100000000000000000000000000000000000000000000000000000000600052603260045260246000fd5b60200260200101819052508060040160009054906101000a900473ffffffffffffffffffffffffffffffffffffffff16878481518110610968577f4e487b7100000000000000000000000000000000000000000000000000000000600052603260045260246000fd5b602002602001019073ffffffffffffffffffffffffffffffffffffffff16908173ffffffffffffffffffffffffffffffffffffffff168152505060008160070154146109c757806007015481600601546109c29190612719565b6109ca565b60005b868481518110610a03577f4e487b7100000000000000000000000000000000000000000000000000000000600052603260045260246000fd5b6020026020010181815250508060050154858481518110610a4d577f4e487b7100000000000000000000000000000000000000000000000000000000600052603260045260246000fd5b6020026020010181815250508280610a6490612813565b935050505b8080610a7490612813565b9150506105ff565b50505090919293949596565b600080548210610acd576040517f08c379a0000000000000000000000000000000000000000000000000000000008152600401610ac49061236e565b60405180910390fd5b6001600083815260200190815260200160002060090160009054906101000a900460ff16610b30576040517f08c379a0000000000000000000000000000000000000000000000000000000008152600401610b279061232e565b60405180910390fd5b6000600160008481526020019081526020016000209050600081600701541415610b5e576000915050610b76565b80600701548160060154610b729190612719565b9150505b919050565b60606001600083815260200190815260200160002060090160009054906101000a900460ff16610be0576040517f08c379a0000000000000000000000000000000000000000000000000000000008152600401610bd79061232e565b60405180910390fd5b60016000838152602001908152602001600020600801805480602002602001604051908101604052809291908181526020016000905b82821015610d895783829060005260206000209060030201604051806060016040529081600082018054610c49906127e1565b80601f0160208091040260200160405190810160405280929190818152602001828054610c75906127e1565b8015610cc25780601f10610c9757610100808354040283529160200191610cc2565b820191906000526020600020905b815481529060010190602001808311610ca557829003601f168201915b50505050508152602001600182018054610cdb906127e1565b80601f0160208091040260200160405190810160405280929190818152602001828054610d07906127e1565b8015610d545780601f10610d2957610100808354040283529160200191610d54565b820191906000526020600020905b815481529060010190602001808311610d3757829003601f168201915b505050505081526020016002820160009054906101000a900460ff1660ff1660ff168152505081526020019060010190610c16565b505050509050919050565b60018160ff1610158015610dac575060058160ff1611155b610deb576040517f08c379a0000000000000000000000000000000000000000000000000000000008152600401610de2906123ce565b60405180910390fd5b6000548310610e2f576040517f08c379a0000000000000000000000000000000000000000000000000000000008152600401610e269061236e565b60405180910390fd5b6001600084815260200190815260200160002060090160009054906101000a900460ff16610e92576040517f08c379a0000000000000000000000000000000000000000000000000000000008152600401610e899061232e565b60405180910390fd5b600360003373ffffffffffffffffffffffffffffffffffffffff1673ffffffffffffffffffffffffffffffffffffffff16815260200190815260200160002060010160009054906101000a900460ff16610f21576040517f08c379a0000000000000000000000000000000000000000000000000000000008152600401610f189061234e565b60405180910390fd5b6000600160008581526020019081526020016000209050806008016040518060600160405280600360003373ffffffffffffffffffffffffffffffffffffffff1673ffffffffffffffffffffffffffffffffffffffff1681526020019081526020016000206000018054610f94906127e1565b80601f0160208091040260200160405190810160405280929190818152602001828054610fc0906127e1565b801561100d5780601f10610fe25761010080835404028352916020019161100d565b820191906000526020600020905b815481529060010190602001808311610ff057829003601f168201915b505050505081526020018581526020018460ff16815250908060018154018082558091505060019003906000526020600020906003020160009091909190915060008201518160000190805190602001906110699291906119b0565b5060208201518160010190805190602001906110869291906119b0565b5060408201518160020160006101000a81548160ff021916908360ff16021790555050508160ff168160060160008282546110c191906126c3565b925050819055508060070160008154809291906110dd90612813565b91905055507f06164d27e861dea186118c8db936baab975448414f0f692a6cb33463e43629d68433600360003373ffffffffffffffffffffffffffffffffffffffff1673ffffffffffffffffffffffffffffffffffffffff168152602001908152602001600020600001868660405161115a959493929190612409565b60405180910390a150505050565b600360003373ffffffffffffffffffffffffffffffffffffffff1673ffffffffffffffffffffffffffffffffffffffff16815260200190815260200160002060010160009054906101000a900460ff16156111f8576040517f08c379a00000000000000000000000000000000000000000000000000000000081526004016111ef906123ae565b60405180910390fd5b604051806040016040528082815260200160011515815250600360003373ffffffffffffffffffffffffffffffffffffffff1673ffffffffffffffffffffffffffffffffffffffff168152602001908152602001600020600082015181600001908051906020019061126b9291906119b0565b5060208201518160010160006101000a81548160ff0219169083151502179055509050507f48cac28ad4dc618e15f4c2dd5e97751182f166de97b25618318b2112aa951a2f33826040516112c09291906121ea565b60405180910390a150565b60016020528060005260406000206000915090508060000154908060010180546112f4906127e1565b80601f0160208091040260200160405190810160405280929190818152602001828054611320906127e1565b801561136d5780601f106113425761010080835404028352916020019161136d565b820191906000526020600020905b81548152906001019060200180831161135057829003601f168201915b505050505090806002018054611382906127e1565b80601f01602080910402602001604051908101604052809291908181526020018280546113ae906127e1565b80156113fb5780601f106113d0576101008083540402835291602001916113fb565b820191906000526020600020905b8154815290600101906020018083116113de57829003601f168201915b505050505090806003018054611410906127e1565b80601f016020809104026020016040519081016040528092919081815260200182805461143c906127e1565b80156114895780601f1061145e57610100808354040283529160200191611489565b820191906000526020600020905b81548152906001019060200180831161146c57829003601f168201915b5050505050908060040160009054906101000a900473ffffffffffffffffffffffffffffffffffffffff16908060050154908060060154908060070154908060090160009054906101000a900460ff16905089565b6000600160008054815260200190815260200160002090506000548160000181905550848160010190805190602001906115199291906119b0565b50838160020190805190602001906115329291906119b0565b508281600301908051906020019061154b9291906119b0565b50338160040160006101000a81548173ffffffffffffffffffffffffffffffffffffffff021916908373ffffffffffffffffffffffffffffffffffffffff16021790555081816005018190555060018160090160006101000a81548160ff0219169083151502179055507f259101de1f87b04b9ee0332ce5e3cc508014004bf283424aead6cd8692f5cf98600054866040516115e892919061246a565b60405180910390a160008081548092919061160290612813565b91905055505050505050565b6060600360003373ffffffffffffffffffffffffffffffffffffffff1673ffffffffffffffffffffffffffffffffffffffff16815260200190815260200160002060010160009054906101000a900460ff1661169f576040517f08c379a00000000000000000000000000000000000000000000000000000000081526004016116969061234e565b60405180910390fd5b600360003373ffffffffffffffffffffffffffffffffffffffff1673ffffffffffffffffffffffffffffffffffffffff16815260200190815260200160002060000180546116ec906127e1565b80601f0160208091040260200160405190810160405280929190818152602001828054611718906127e1565b80156117655780601f1061173a57610100808354040283529160200191611765565b820191906000526020600020905b81548152906001019060200180831161174857829003601f168201915b5050505050905090565b6003602052806000526040600020600091509050806000018054611792906127e1565b80601f01602080910402602001604051908101604052809291908181526020018280546117be906127e1565b801561180b5780601f106117e05761010080835404028352916020019161180b565b820191906000526020600020905b8154815290600101906020018083116117ee57829003601f168201915b5050505050908060010160009054906101000a900460ff16905082565b60005481565b600260009054906101000a900473ffffffffffffffffffffffffffffffffffffffff1673ffffffffffffffffffffffffffffffffffffffff163373ffffffffffffffffffffffffffffffffffffffff16146118be576040517f08c379a00000000000000000000000000000000000000000000000000000000081526004016118b59061238e565b60405180910390fd5b6001600082815260200190815260200160002060090160009054906101000a900460ff16611921576040517f08c379a00000000000000000000000000000000000000000000000000000000081526004016119189061232e565b60405180910390fd5b60006001600083815260200190815260200160002060090160006101000a81548160ff0219169083151502179055507fc341cf326465fe622f86c468249e8c0cb03ed23ba376a6a34863a1374ac7d7698160405161197f91906123ee565b60405180910390a150565b600260009054906101000a900473ffffffffffffffffffffffffffffffffffffffff1681565b8280546119bc906127e1565b90600052602060002090601f0160209004810192826119de5760008555611a25565b82601f106119f757805160ff1916838001178555611a25565b82800160010185558215611a25579182015b82811115611a24578251825591602001919060010190611a09565b5b509050611a329190611a36565b5090565b5b80821115611a4f576000816000905550600101611a37565b5090565b6000611a66611a618461256d565b61253c565b905082815260208101848484011115611a7e57600080fd5b611a8984828561279f565b509392505050565b600081359050611aa081612929565b92915050565b600082601f830112611ab757600080fd5b8135611ac7848260208601611a53565b91505092915050565b600081359050611adf81612940565b92915050565b600081359050611af481612957565b92915050565b600060208284031215611b0c57600080fd5b6000611b1a84828501611a91565b91505092915050565b600060208284031215611b3557600080fd5b600082013567ffffffffffffffff811115611b4f57600080fd5b611b5b84828501611aa6565b91505092915050565b60008060008060808587031215611b7a57600080fd5b600085013567ffffffffffffffff811115611b9457600080fd5b611ba087828801611aa6565b945050602085013567ffffffffffffffff811115611bbd57600080fd5b611bc987828801611aa6565b935050604085013567ffffffffffffffff811115611be657600080fd5b611bf287828801611aa6565b9250506060611c0387828801611ad0565b91505092959194509250565b600060208284031215611c2157600080fd5b6000611c2f84828501611ad0565b91505092915050565b600080600060608486031215611c4d57600080fd5b6000611c5b86828701611ad0565b935050602084013567ffffffffffffffff811115611c7857600080fd5b611c8486828701611aa6565b9250506040611c9586828701611ae5565b9150509250925092565b6000611cab8383611cf7565b60208301905092915050565b6000611cc38383611eca565b905092915050565b6000611cd7838361213c565b905092915050565b6000611ceb8383612193565b60208301905092915050565b611d008161274a565b82525050565b611d0f8161274a565b82525050565b6000611d20826125f2565b611d2a818561265d565b9350611d358361259d565b8060005b83811015611d66578151611d4d8882611c9f565b9750611d5883612629565b925050600181019050611d39565b5085935050505092915050565b6000611d7e826125fd565b611d88818561266e565b935083602082028501611d9a856125ad565b8060005b85811015611dd65784840389528151611db78582611cb7565b9450611dc283612636565b925060208a01995050600181019050611d9e565b50829750879550505050505092915050565b6000611df382612608565b611dfd818561267f565b935083602082028501611e0f856125bd565b8060005b85811015611e4b5784840389528151611e2c8582611ccb565b9450611e3783612643565b925060208a01995050600181019050611e13565b50829750879550505050505092915050565b6000611e6882612613565b611e728185612690565b9350611e7d836125cd565b8060005b83811015611eae578151611e958882611cdf565b9750611ea083612650565b925050600181019050611e81565b5085935050505092915050565b611ec48161275c565b82525050565b6000611ed58261261e565b611edf81856126a1565b9350611eef8185602086016127ae565b611ef881612918565b840191505092915050565b6000611f0e8261261e565b611f1881856126b2565b9350611f288185602086016127ae565b611f3181612918565b840191505092915050565b60008154611f49816127e1565b611f5381866126b2565b94506001821660008114611f6e5760018114611f8057611fb3565b60ff1983168652602086019350611fb3565b611f89856125dd565b60005b83811015611fab57815481890152600182019150602081019050611f8c565b808801955050505b50505092915050565b6000611fc96016836126b2565b91507f50726f6475637420646f6573206e6f74206578697374000000000000000000006000830152602082019050919050565b60006120096013836126b2565b91507f55736572206e6f742072656769737465726564000000000000000000000000006000830152602082019050919050565b60006120496011836126b2565b91507f496e76616c69642070726f6475637449640000000000000000000000000000006000830152602082019050919050565b60006120896018836126b2565b91507f4f6e6c792061646d696e2063616e2063616c6c207468697300000000000000006000830152602082019050919050565b60006120c96017836126b2565b91507f5573657220616c726561647920726567697374657265640000000000000000006000830152602082019050919050565b60006121096012836126b2565b91507f526174696e67206d75737420626520312d3500000000000000000000000000006000830152602082019050919050565b600060608301600083015184820360008601526121598282611eca565b915050602083015184820360208601526121738282611eca565b915050604083015161218860408601826121b1565b508091505092915050565b61219c81612788565b82525050565b6121ab81612788565b82525050565b6121ba81612792565b82525050565b6121c981612792565b82525050565b60006020820190506121e46000830184611d06565b92915050565b60006040820190506121ff6000830185611d06565b81810360208301526122118184611f03565b90509392505050565b600060208201905081810360008301526122348184611de8565b905092915050565b600060e0820190508181036000830152612256818a611e5d565b9050818103602083015261226a8189611d73565b9050818103604083015261227e8188611d73565b905081810360608301526122928187611d73565b905081810360808301526122a68186611d15565b905081810360a08301526122ba8185611e5d565b905081810360c08301526122ce8184611e5d565b905098975050505050505050565b600060208201905081810360008301526122f68184611f03565b905092915050565b600060408201905081810360008301526123188185611f03565b90506123276020830184611ebb565b9392505050565b6000602082019050818103600083015261234781611fbc565b9050919050565b6000602082019050818103600083015261236781611ffc565b9050919050565b600060208201905081810360008301526123878161203c565b9050919050565b600060208201905081810360008301526123a78161207c565b9050919050565b600060208201905081810360008301526123c7816120bc565b9050919050565b600060208201905081810360008301526123e7816120fc565b9050919050565b600060208201905061240360008301846121a2565b92915050565b600060a08201905061241e60008301886121a2565b61242b6020830187611d06565b818103604083015261243d8186611f3c565b905081810360608301526124518185611f03565b905061246060808301846121c0565b9695505050505050565b600060408201905061247f60008301856121a2565b81810360208301526124918184611f03565b90509392505050565b6000610120820190506124b0600083018c6121a2565b81810360208301526124c2818b611f03565b905081810360408301526124d6818a611f03565b905081810360608301526124ea8189611f03565b90506124f96080830188611d06565b61250660a08301876121a2565b61251360c08301866121a2565b61252060e08301856121a2565b61252e610100830184611ebb565b9a9950505050505050505050565b6000604051905081810181811067ffffffffffffffff82111715612563576125626128e9565b5b8060405250919050565b600067ffffffffffffffff821115612588576125876128e9565b5b601f19601f8301169050602081019050919050565b6000819050602082019050919050565b6000819050602082019050919050565b6000819050602082019050919050565b6000819050602082019050919050565b60008190508160005260206000209050919050565b600081519050919050565b600081519050919050565b600081519050919050565b600081519050919050565b600081519050919050565b6000602082019050919050565b6000602082019050919050565b6000602082019050919050565b6000602082019050919050565b600082825260208201905092915050565b600082825260208201905092915050565b600082825260208201905092915050565b600082825260208201905092915050565b600082825260208201905092915050565b600082825260208201905092915050565b60006126ce82612788565b91506126d983612788565b9250827fffffffffffffffffffffffffffffffffffffffffffffffffffffffffffffffff0382111561270e5761270d61285c565b5b828201905092915050565b600061272482612788565b915061272f83612788565b92508261273f5761273e61288b565b5b828204905092915050565b600061275582612768565b9050919050565b60008115159050919050565b600073ffffffffffffffffffffffffffffffffffffffff82169050919050565b6000819050919050565b600060ff82169050919050565b82818337600083830152505050565b60005b838110156127cc5780820151818401526020810190506127b1565b838111156127db576000848401525b50505050565b600060028204905060018216806127f957607f821691505b6020821081141561280d5761280c6128ba565b5b50919050565b600061281e82612788565b91507fffffffffffffffffffffffffffffffffffffffffffffffffffffffffffffffff8214156128515761285061285c565b5b600182019050919050565b7f4e487b7100000000000000000000000000000000000000000000000000000000600052601160045260246000fd5b7f4e487b7100000000000000000000000000000000000000000000000000000000600052601260045260246000fd5b7f4e487b7100000000000000000000000000000000000000000000000000000000600052602260045260246000fd5b7f4e487b7100000000000000000000000000000000000000000000000000000000600052604160045260246000fd5b6000601f19601f8301169050919050565b6129328161274a565b811461293d57600080fd5b50565b61294981612788565b811461295457600080fd5b50565b61296081612792565b811461296b57600080fd5b5056fea26469706673582212209c486e0660b2e67880fdf6339b94e2fade85a00b31617776fee8543f9297585c64736f6c63430008000033",
  "immutableReferences": {},
  "source": "// SPDX-License-Identifier: MIT\r\npragma solidity ^0.8.0;\r\n\r\ncontract ProductContract {\r\n    struct Comment {\r\n        string commenterId;\r\n        string text;\r\n        uint8 rating;\r\n    }\r\n\r\n    struct Product {\r\n        uint256 id;\r\n        string name;\r\n        string description;\r\n        string imageBase64; // storing image in base64\r\n        address creator;\r\n        uint256 price;\r\n        uint256 totalRating;\r\n        uint256 ratingCount;\r\n        Comment[] comments;\r\n        bool exists;  // track deleted products\r\n    }\r\n\r\n    struct User {\r\n        string userId;\r\n        bool isRegistered;\r\n    }\r\n\r\n    uint256 public productCount = 0;\r\n    mapping(uint256 => Product) public products;\r\n\r\n    address public adminAddress;\r\n\r\n    mapping(address => User) public users;\r\n\r\n    event UserRegistered(address userAddress, string userId);\r\n    event ProductAdded(uint256 id, string name);\r\n    event CommentAdded(uint256 productId, address commenter, string commenterId, string text, uint8 rating);\r\n    event ProductDeleted(uint256 productId);\r\n\r\n    modifier onlyAdmin() {\r\n        require(msg.sender == adminAddress, \"Only admin can call this\");\r\n        _;\r\n    }\r\n\r\n    constructor() {\r\n        adminAddress = msg.sender;  // The deployer is admin\r\n    }\r\n\r\n    function registerUser(string memory _userId) public {\r\n        require(!users[msg.sender].isRegistered, \"User already registered\");\r\n        users[msg.sender] = User(_userId, true);\r\n        emit UserRegistered(msg.sender, _userId);\r\n    }\r\n\r\n    function loginUser() public view returns (string memory) {\r\n        require(users[msg.sender].isRegistered, \"User not registered\");\r\n        return users[msg.sender].userId;\r\n    }\r\n\r\n    // Add a new product\r\n    function addProduct(\r\n        string memory _name,\r\n        string memory _description,\r\n        string memory _imageBase64,\r\n        uint256 _price\r\n    ) public {\r\n        Product storage newProduct = products[productCount];\r\n        newProduct.id = productCount;\r\n        newProduct.name = _name;\r\n        newProduct.description = _description;\r\n        newProduct.imageBase64 = _imageBase64;\r\n        newProduct.creator = msg.sender;\r\n        newProduct.price = _price;\r\n        newProduct.exists = true;\r\n\r\n        emit ProductAdded(productCount, _name);\r\n        productCount++;\r\n    }\r\n\r\n    // Add a comment and rating to a product\r\n    function addComment(\r\n        uint256 _productId,\r\n        string memory _text,\r\n        uint8 _rating\r\n    ) public {\r\n        require(_rating >= 1 && _rating <= 5, \"Rating must be 1-5\");\r\n        require(_productId < productCount, \"Invalid productId\");\r\n        require(products[_productId].exists, \"Product does not exist\");\r\n        require(users[msg.sender].isRegistered, \"User not registered\");\r\n\r\n        Product storage product = products[_productId];\r\n        product.comments.push(Comment(users[msg.sender].userId, _text, _rating));\r\n        product.totalRating += _rating;\r\n        product.ratingCount++;\r\n\r\n        emit CommentAdded(_productId, msg.sender, users[msg.sender].userId, _text, _rating);\r\n    }\r\n\r\n    // Get all comments for a product\r\n    function getComments(uint256 _productId) public view returns (Comment[] memory) {\r\n        require(products[_productId].exists, \"Product does not exist\");\r\n        return products[_productId].comments;\r\n    }\r\n\r\n    // Get average rating of a product\r\n    function getAverageRating(uint256 _productId) public view returns (uint256) {\r\n        require(_productId < productCount, \"Invalid productId\");\r\n        require(products[_productId].exists, \"Product does not exist\");\r\n\r\n        Product storage product = products[_productId];\r\n        if (product.ratingCount == 0) return 0;\r\n        return product.totalRating / product.ratingCount;\r\n    }\r\n\r\n    // Delete product (admin only)\r\n    function deleteProduct(uint256 productId) public onlyAdmin {\r\n        require(products[productId].exists, \"Product does not exist\");\r\n        products[productId].exists = false;  // mark as deleted\r\n        emit ProductDeleted(productId);\r\n    }\r\n\r\n    // Get all existing (non-deleted) products\r\n    function getAllProducts()\r\n        public\r\n        view\r\n        returns (\r\n            uint256[] memory ids,\r\n            string[] memory names,\r\n            string[] memory descriptions,\r\n            string[] memory imageBase64s,\r\n            address[] memory creators,\r\n            uint256[] memory avgRatings,\r\n            uint256[] memory prices\r\n        )\r\n    {\r\n        uint256 validCount = 0;\r\n\r\n        // First pass: count valid products\r\n        for (uint256 i = 0; i < productCount; i++) {\r\n            if (products[i].exists) validCount++;\r\n        }\r\n\r\n        // Initialize arrays\r\n        ids = new uint256[](validCount);\r\n        names = new string[](validCount);\r\n        descriptions = new string[](validCount);\r\n        imageBase64s = new string[](validCount);\r\n        creators = new address[](validCount);\r\n        avgRatings = new uint256[](validCount);\r\n        prices = new uint256[](validCount);\r\n\r\n        // Second pass: fill arrays\r\n        uint256 index = 0;\r\n        for (uint256 i = 0; i < productCount; i++) {\r\n            if (!products[i].exists) continue;\r\n\r\n            Product storage p = products[i];\r\n            ids[index] = p.id;\r\n            names[index] = p.name;\r\n            descriptions[index] = p.description;\r\n            imageBase64s[index] = p.imageBase64;\r\n            creators[index] = p.creator;\r\n            avgRatings[index] = p.ratingCount == 0 ? 0 : (p.totalRating / p.ratingCount);\r\n            prices[index] = p.price;\r\n            index++;\r\n        }\r\n\r\n        return (ids, names, descriptions, imageBase64s, creators, avgRatings, prices);\r\n    }\r\n}\r\n",
  "sourcePath": "D:\\BDA-simple\\Blockchain-pro\\contracts\\ProductContract.sol",
  "compiler": {
    "name": "solc",
    "version": "0.8.0+commit.c7dfd78e.Emscripten.clang"
  },
  "schemaVersion": "3.4.16",
  "updatedAt": "2025-05-31T07:33:40.798Z",
  "networkType": "ethereum",
  "devdoc": {
    "kind": "dev",
    "methods": {},
    "version": 1
  },
  "userdoc": {
    "kind": "user",
    "methods": {},
    "version": 1
  }
}