{
  "contractName": "ProductContract",
  "abi": [
    {
      "inputs": [],
      "stateMutability": "nonpayable",
      "type": "constructor"
    },
    {
      "anonymous": false,
      "inputs": [
        {
          "indexed": false,
          "internalType": "uint256",
          "name": "productId",
          "type": "uint256"
        },
        {
          "indexed": false,
          "internalType": "address",
          "name": "commenter",
          "type": "address"
        },
        {
          "indexed": false,
          "internalType": "string",
          "name": "text",
          "type": "string"
        },
        {
          "indexed": false,
          "internalType": "uint8",
          "name": "rating",
          "type": "uint8"
        }
      ],
      "name": "CommentAdded",
      "type": "event"
    },
    {
      "anonymous": false,
      "inputs": [
        {
          "indexed": false,
          "internalType": "uint256",
          "name": "id",
          "type": "uint256"
        },
        {
          "indexed": false,
          "internalType": "string",
          "name": "name",
          "type": "string"
        }
      ],
      "name": "ProductAdded",
      "type": "event"
    },
    {
      "anonymous": false,
      "inputs": [
        {
          "indexed": false,
          "internalType": "uint256",
          "name": "productId",
          "type": "uint256"
        }
      ],
      "name": "ProductDeleted",
      "type": "event"
    },
    {
      "inputs": [],
      "name": "adminAddress",
      "outputs": [
        {
          "internalType": "address",
          "name": "",
          "type": "address"
        }
      ],
      "stateMutability": "view",
      "type": "function",
      "constant": true
    },
    {
      "inputs": [],
      "name": "productCount",
      "outputs": [
        {
          "internalType": "uint256",
          "name": "",
          "type": "uint256"
        }
      ],
      "stateMutability": "view",
      "type": "function",
      "constant": true
    },
    {
      "inputs": [
        {
          "internalType": "uint256",
          "name": "",
          "type": "uint256"
        }
      ],
      "name": "products",
      "outputs": [
        {
          "internalType": "uint256",
          "name": "id",
          "type": "uint256"
        },
        {
          "internalType": "string",
          "name": "name",
          "type": "string"
        },
        {
          "internalType": "string",
          "name": "description",
          "type": "string"
        },
        {
          "internalType": "string",
          "name": "imageBase64",
          "type": "string"
        },
        {
          "internalType": "address",
          "name": "creator",
          "type": "address"
        },
        {
          "internalType": "uint256",
          "name": "price",
          "type": "uint256"
        },
        {
          "internalType": "uint256",
          "name": "totalRating",
          "type": "uint256"
        },
        {
          "internalType": "uint256",
          "name": "ratingCount",
          "type": "uint256"
        }
      ],
      "stateMutability": "view",
      "type": "function",
      "constant": true
    },
    {
      "inputs": [
        {
          "internalType": "string",
          "name": "_name",
          "type": "string"
        },
        {
          "internalType": "string",
          "name": "_description",
          "type": "string"
        },
        {
          "internalType": "string",
          "name": "_imageBase64",
          "type": "string"
        },
        {
          "internalType": "uint256",
          "name": "_price",
          "type": "uint256"
        }
      ],
      "name": "addProduct",
      "outputs": [],
      "stateMutability": "nonpayable",
      "type": "function"
    },
    {
      "inputs": [
        {
          "internalType": "uint256",
          "name": "_productId",
          "type": "uint256"
        },
        {
          "internalType": "string",
          "name": "_text",
          "type": "string"
        },
        {
          "internalType": "uint8",
          "name": "_rating",
          "type": "uint8"
        }
      ],
      "name": "addComment",
      "outputs": [],
      "stateMutability": "nonpayable",
      "type": "function"
    },
    {
      "inputs": [
        {
          "internalType": "uint256",
          "name": "_productId",
          "type": "uint256"
        }
      ],
      "name": "getComments",
      "outputs": [
        {
          "internalType": "address[]",
          "name": "commenters",
          "type": "address[]"
        },
        {
          "internalType": "string[]",
          "name": "texts",
          "type": "string[]"
        },
        {
          "internalType": "uint8[]",
          "name": "ratings",
          "type": "uint8[]"
        }
      ],
      "stateMutability": "view",
      "type": "function",
      "constant": true
    },
    {
      "inputs": [
        {
          "internalType": "uint256",
          "name": "_productId",
          "type": "uint256"
        }
      ],
      "name": "getAverageRating",
      "outputs": [
        {
          "internalType": "uint256",
          "name": "",
          "type": "uint256"
        }
      ],
      "stateMutability": "view",
      "type": "function",
      "constant": true
    },
    {
      "inputs": [
        {
          "internalType": "uint256",
          "name": "_productId",
          "type": "uint256"
        }
      ],
      "name": "deleteProduct",
      "outputs": [],
      "stateMutability": "nonpayable",
      "type": "function"
    },
    {
      "inputs": [],
      "name": "getAllProducts",
      "outputs": [
        {
          "internalType": "uint256[]",
          "name": "ids",
          "type": "uint256[]"
        },
        {
          "internalType": "string[]",
          "name": "names",
          "type": "string[]"
        },
        {
          "internalType": "string[]",
          "name": "descriptions",
          "type": "string[]"
        },
        {
          "internalType": "string[]",
          "name": "imageBase64s",
          "type": "string[]"
        },
        {
          "internalType": "address[]",
          "name": "creators",
          "type": "address[]"
        },
        {
          "internalType": "uint256[]",
          "name": "avgRatings",
          "type": "uint256[]"
        },
        {
          "internalType": "uint256[]",
          "name": "prices",
          "type": "uint256[]"
        }
      ],
      "stateMutability": "view",
      "type": "function",
      "constant": true
    }
  ],
  "bytecode": "0x60806040526000805534801561001457600080fd5b5033600260006101000a81548173ffffffffffffffffffffffffffffffffffffffff021916908373ffffffffffffffffffffffffffffffffffffffff1602179055506122fe806100656000396000f3fe608060405234801561001057600080fd5b50600436106100935760003560e01c80637acc0b20116100665780637acc0b201461013a5780638165fed514610171578063e0f6ef871461018d578063ed90c7b7146101ab578063fc6f9468146101c757610093565b806302ee3a521461009857806317b7e03e146100bc57806323edf697146100ec57806344b762691461011e575b600080fd5b6100a06101e5565b6040516100b39796959493929190611ca4565b60405180910390f35b6100d660048036038101906100d19190611836565b610972565b6040516100e39190611da4565b60405180910390f35b61010660048036038101906101019190611836565b610a02565b60405161011593929190611c58565b60405180910390f35b6101386004803603810190610133919061185f565b610e91565b005b610154600480360381019061014f9190611836565b6110a6565b604051610168989796959493929190611e3b565b60405180910390f35b61018b6004803603810190610186919061178b565b6112a6565b005b6101956113b9565b6040516101a29190611da4565b60405180910390f35b6101c560048036038101906101c09190611836565b6113bf565b005b6101cf61156a565b6040516101dc9190611c3d565b60405180910390f35b606080606080606080606060005467ffffffffffffffff811115610232577f4e487b7100000000000000000000000000000000000000000000000000000000600052604160045260246000fd5b6040519080825280602002602001820160405280156102605781602001602082028036833780820191505090505b50965060005467ffffffffffffffff8111156102a5577f4e487b7100000000000000000000000000000000000000000000000000000000600052604160045260246000fd5b6040519080825280602002602001820160405280156102d857816020015b60608152602001906001900390816102c35790505b50955060005467ffffffffffffffff81111561031d577f4e487b7100000000000000000000000000000000000000000000000000000000600052604160045260246000fd5b60405190808252806020026020018201604052801561035057816020015b606081526020019060019003908161033b5790505b50945060005467ffffffffffffffff811115610395577f4e487b7100000000000000000000000000000000000000000000000000000000600052604160045260246000fd5b6040519080825280602002602001820160405280156103c857816020015b60608152602001906001900390816103b35790505b50935060005467ffffffffffffffff81111561040d577f4e487b7100000000000000000000000000000000000000000000000000000000600052604160045260246000fd5b60405190808252806020026020018201604052801561043b5781602001602082028036833780820191505090505b50925060005467ffffffffffffffff811115610480577f4e487b7100000000000000000000000000000000000000000000000000000000600052604160045260246000fd5b6040519080825280602002602001820160405280156104ae5781602001602082028036833780820191505090505b50915060005467ffffffffffffffff8111156104f3577f4e487b7100000000000000000000000000000000000000000000000000000000600052604160045260246000fd5b6040519080825280602002602001820160405280156105215781602001602082028036833780820191505090505b50905060005b6000548110156109685760006001600083815260200190815260200160002090508060000154898381518110610586577f4e487b7100000000000000000000000000000000000000000000000000000000600052603260045260246000fd5b6020026020010181815250508060010180546105a190612152565b80601f01602080910402602001604051908101604052809291908181526020018280546105cd90612152565b801561061a5780601f106105ef5761010080835404028352916020019161061a565b820191906000526020600020905b8154815290600101906020018083116105fd57829003601f168201915b5050505050888381518110610658577f4e487b7100000000000000000000000000000000000000000000000000000000600052603260045260246000fd5b602002602001018190525080600201805461067290612152565b80601f016020809104026020016040519081016040528092919081815260200182805461069e90612152565b80156106eb5780601f106106c0576101008083540402835291602001916106eb565b820191906000526020600020905b8154815290600101906020018083116106ce57829003601f168201915b5050505050878381518110610729577f4e487b7100000000000000000000000000000000000000000000000000000000600052603260045260246000fd5b602002602001018190525080600301805461074390612152565b80601f016020809104026020016040519081016040528092919081815260200182805461076f90612152565b80156107bc5780601f10610791576101008083540402835291602001916107bc565b820191906000526020600020905b81548152906001019060200180831161079f57829003601f168201915b50505050508683815181106107fa577f4e487b7100000000000000000000000000000000000000000000000000000000600052603260045260246000fd5b60200260200101819052508060040160009054906101000a900473ffffffffffffffffffffffffffffffffffffffff16858381518110610863577f4e487b7100000000000000000000000000000000000000000000000000000000600052603260045260246000fd5b602002602001019073ffffffffffffffffffffffffffffffffffffffff16908173ffffffffffffffffffffffffffffffffffffffff168152505060008160070154146108c257806007015481600601546108bd9190612096565b6108c5565b60005b8483815181106108fe577f4e487b7100000000000000000000000000000000000000000000000000000000600052603260045260246000fd5b6020026020010181815250508060050154838381518110610948577f4e487b7100000000000000000000000000000000000000000000000000000000600052603260045260246000fd5b60200260200101818152505050808061096090612184565b915050610527565b5090919293949596565b6000805482106109b7576040517f08c379a00000000000000000000000000000000000000000000000000000000081526004016109ae90611d44565b60405180910390fd5b60006001600084815260200190815260200160002090506000816007015414156109e55760009150506109fd565b806007015481600601546109f99190612096565b9150505b919050565b60608060606000548410610a4b576040517f08c379a0000000000000000000000000000000000000000000000000000000008152600401610a4290611d44565b60405180910390fd5b60006001600086815260200190815260200160002090506000816008018054905090508067ffffffffffffffff811115610aae577f4e487b7100000000000000000000000000000000000000000000000000000000600052604160045260246000fd5b604051908082528060200260200182016040528015610adc5781602001602082028036833780820191505090505b5094508067ffffffffffffffff811115610b1f577f4e487b7100000000000000000000000000000000000000000000000000000000600052604160045260246000fd5b604051908082528060200260200182016040528015610b5257816020015b6060815260200190600190039081610b3d5790505b5093508067ffffffffffffffff811115610b95577f4e487b7100000000000000000000000000000000000000000000000000000000600052604160045260246000fd5b604051908082528060200260200182016040528015610bc35781602001602082028036833780820191505090505b50925060005b81811015610e8757826008018181548110610c0d577f4e487b7100000000000000000000000000000000000000000000000000000000600052603260045260246000fd5b906000526020600020906003020160000160009054906101000a900473ffffffffffffffffffffffffffffffffffffffff16868281518110610c78577f4e487b7100000000000000000000000000000000000000000000000000000000600052603260045260246000fd5b602002602001019073ffffffffffffffffffffffffffffffffffffffff16908173ffffffffffffffffffffffffffffffffffffffff1681525050826008018181548110610cee577f4e487b7100000000000000000000000000000000000000000000000000000000600052603260045260246000fd5b90600052602060002090600302016001018054610d0a90612152565b80601f0160208091040260200160405190810160405280929190818152602001828054610d3690612152565b8015610d835780601f10610d5857610100808354040283529160200191610d83565b820191906000526020600020905b815481529060010190602001808311610d6657829003601f168201915b5050505050858281518110610dc1577f4e487b7100000000000000000000000000000000000000000000000000000000600052603260045260246000fd5b6020026020010181905250826008018181548110610e08577f4e487b7100000000000000000000000000000000000000000000000000000000600052603260045260246000fd5b906000526020600020906003020160020160009054906101000a900460ff16848281518110610e60577f4e487b7100000000000000000000000000000000000000000000000000000000600052603260045260246000fd5b602002602001019060ff16908160ff16815250508080610e7f90612184565b915050610bc9565b5050509193909250565b60018160ff1610158015610ea9575060058160ff1611155b610ee8576040517f08c379a0000000000000000000000000000000000000000000000000000000008152600401610edf90611d84565b60405180910390fd5b6000548310610f2c576040517f08c379a0000000000000000000000000000000000000000000000000000000008152600401610f2390611d44565b60405180910390fd5b60006001600085815260200190815260200160002090508060080160405180606001604052803373ffffffffffffffffffffffffffffffffffffffff1681526020018581526020018460ff16815250908060018154018082558091505060019003906000526020600020906003020160009091909190915060008201518160000160006101000a81548173ffffffffffffffffffffffffffffffffffffffff021916908373ffffffffffffffffffffffffffffffffffffffff1602179055506020820151816001019080519060200190611007929190611590565b5060408201518160020160006101000a81548160ff021916908360ff16021790555050508160ff168160060160008282546110429190612040565b9250508190555080600701600081548092919061105e90612184565b91905055507f5a946ef60f5f27729c43db6534cb1d7e8b00a87b6b6e9687541625b362389703843385856040516110989493929190611dbf565b60405180910390a150505050565b60016020528060005260406000206000915090508060000154908060010180546110cf90612152565b80601f01602080910402602001604051908101604052809291908181526020018280546110fb90612152565b80156111485780601f1061111d57610100808354040283529160200191611148565b820191906000526020600020905b81548152906001019060200180831161112b57829003601f168201915b50505050509080600201805461115d90612152565b80601f016020809104026020016040519081016040528092919081815260200182805461118990612152565b80156111d65780601f106111ab576101008083540402835291602001916111d6565b820191906000526020600020905b8154815290600101906020018083116111b957829003601f168201915b5050505050908060030180546111eb90612152565b80601f016020809104026020016040519081016040528092919081815260200182805461121790612152565b80156112645780601f1061123957610100808354040283529160200191611264565b820191906000526020600020905b81548152906001019060200180831161124757829003601f168201915b5050505050908060040160009054906101000a900473ffffffffffffffffffffffffffffffffffffffff16908060050154908060060154908060070154905088565b6000600160008054815260200190815260200160002090506000548160000181905550848160010190805190602001906112e1929190611590565b50838160020190805190602001906112fa929190611590565b5082816003019080519060200190611313929190611590565b50338160040160006101000a81548173ffffffffffffffffffffffffffffffffffffffff021916908373ffffffffffffffffffffffffffffffffffffffff1602179055508181600501819055507f259101de1f87b04b9ee0332ce5e3cc508014004bf283424aead6cd8692f5cf9860005486604051611393929190611e0b565b60405180910390a16000808154809291906113ad90612184565b91905055505050505050565b60005481565b600260009054906101000a900473ffffffffffffffffffffffffffffffffffffffff1673ffffffffffffffffffffffffffffffffffffffff163373ffffffffffffffffffffffffffffffffffffffff161461144f576040517f08c379a000000000000000000000000000000000000000000000000000000000815260040161144690611d64565b60405180910390fd5b6000548110611493576040517f08c379a000000000000000000000000000000000000000000000000000000000815260040161148a90611d44565b60405180910390fd5b600160008281526020019081526020016000206000808201600090556001820160006114bf9190611616565b6002820160006114cf9190611616565b6003820160006114df9190611616565b6004820160006101000a81549073ffffffffffffffffffffffffffffffffffffffff021916905560058201600090556006820160009055600782016000905560088201600061152e9190611656565b50507fc341cf326465fe622f86c468249e8c0cb03ed23ba376a6a34863a1374ac7d7698160405161155f9190611da4565b60405180910390a150565b600260009054906101000a900473ffffffffffffffffffffffffffffffffffffffff1681565b82805461159c90612152565b90600052602060002090601f0160209004810192826115be5760008555611605565b82601f106115d757805160ff1916838001178555611605565b82800160010185558215611605579182015b828111156116045782518255916020019190600101906115e9565b5b509050611612919061167a565b5090565b50805461162290612152565b6000825580601f106116345750611653565b601f016020900490600052602060002090810190611652919061167a565b5b50565b50805460008255600302906000526020600020908101906116779190611697565b50565b5b8082111561169357600081600090555060010161167b565b5090565b5b808211156116f557600080820160006101000a81549073ffffffffffffffffffffffffffffffffffffffff02191690556001820160006116d89190611616565b6002820160006101000a81549060ff021916905550600301611698565b5090565b600061170c61170784611eff565b611ece565b90508281526020810184848401111561172457600080fd5b61172f848285612110565b509392505050565b600082601f83011261174857600080fd5b81356117588482602086016116f9565b91505092915050565b6000813590506117708161229a565b92915050565b600081359050611785816122b1565b92915050565b600080600080608085870312156117a157600080fd5b600085013567ffffffffffffffff8111156117bb57600080fd5b6117c787828801611737565b945050602085013567ffffffffffffffff8111156117e457600080fd5b6117f087828801611737565b935050604085013567ffffffffffffffff81111561180d57600080fd5b61181987828801611737565b925050606061182a87828801611761565b91505092959194509250565b60006020828403121561184857600080fd5b600061185684828501611761565b91505092915050565b60008060006060848603121561187457600080fd5b600061188286828701611761565b935050602084013567ffffffffffffffff81111561189f57600080fd5b6118ab86828701611737565b92505060406118bc86828701611776565b9150509250925092565b60006118d28383611922565b60208301905092915050565b60006118ea8383611acf565b905092915050565b60006118fe8383611c01565b60208301905092915050565b60006119168383611c1f565b60208301905092915050565b61192b816120c7565b82525050565b61193a816120c7565b82525050565b600061194b82611f6f565b6119558185611fda565b935061196083611f2f565b8060005b8381101561199157815161197888826118c6565b975061198383611fa6565b925050600181019050611964565b5085935050505092915050565b60006119a982611f7a565b6119b38185611feb565b9350836020820285016119c585611f3f565b8060005b85811015611a0157848403895281516119e285826118de565b94506119ed83611fb3565b925060208a019950506001810190506119c9565b50829750879550505050505092915050565b6000611a1e82611f85565b611a288185611ffc565b9350611a3383611f4f565b8060005b83811015611a64578151611a4b88826118f2565b9750611a5683611fc0565b925050600181019050611a37565b5085935050505092915050565b6000611a7c82611f90565b611a86818561200d565b9350611a9183611f5f565b8060005b83811015611ac2578151611aa9888261190a565b9750611ab483611fcd565b925050600181019050611a95565b5085935050505092915050565b6000611ada82611f9b565b611ae4818561201e565b9350611af481856020860161211f565b611afd81612289565b840191505092915050565b6000611b1382611f9b565b611b1d818561202f565b9350611b2d81856020860161211f565b611b3681612289565b840191505092915050565b6000611b4e60118361202f565b91507f496e76616c69642070726f6475637449640000000000000000000000000000006000830152602082019050919050565b6000611b8e60188361202f565b91507f4f6e6c792061646d696e2063616e2063616c6c207468697300000000000000006000830152602082019050919050565b6000611bce60128361202f565b91507f526174696e67206d75737420626520312d3500000000000000000000000000006000830152602082019050919050565b611c0a816120f9565b82525050565b611c19816120f9565b82525050565b611c2881612103565b82525050565b611c3781612103565b82525050565b6000602082019050611c526000830184611931565b92915050565b60006060820190508181036000830152611c728186611940565b90508181036020830152611c86818561199e565b90508181036040830152611c9a8184611a71565b9050949350505050565b600060e0820190508181036000830152611cbe818a611a13565b90508181036020830152611cd2818961199e565b90508181036040830152611ce6818861199e565b90508181036060830152611cfa818761199e565b90508181036080830152611d0e8186611940565b905081810360a0830152611d228185611a13565b905081810360c0830152611d368184611a13565b905098975050505050505050565b60006020820190508181036000830152611d5d81611b41565b9050919050565b60006020820190508181036000830152611d7d81611b81565b9050919050565b60006020820190508181036000830152611d9d81611bc1565b9050919050565b6000602082019050611db96000830184611c10565b92915050565b6000608082019050611dd46000830187611c10565b611de16020830186611931565b8181036040830152611df38185611b08565b9050611e026060830184611c2e565b95945050505050565b6000604082019050611e206000830185611c10565b8181036020830152611e328184611b08565b90509392505050565b600061010082019050611e51600083018b611c10565b8181036020830152611e63818a611b08565b90508181036040830152611e778189611b08565b90508181036060830152611e8b8188611b08565b9050611e9a6080830187611931565b611ea760a0830186611c10565b611eb460c0830185611c10565b611ec160e0830184611c10565b9998505050505050505050565b6000604051905081810181811067ffffffffffffffff82111715611ef557611ef461225a565b5b8060405250919050565b600067ffffffffffffffff821115611f1a57611f1961225a565b5b601f19601f8301169050602081019050919050565b6000819050602082019050919050565b6000819050602082019050919050565b6000819050602082019050919050565b6000819050602082019050919050565b600081519050919050565b600081519050919050565b600081519050919050565b600081519050919050565b600081519050919050565b6000602082019050919050565b6000602082019050919050565b6000602082019050919050565b6000602082019050919050565b600082825260208201905092915050565b600082825260208201905092915050565b600082825260208201905092915050565b600082825260208201905092915050565b600082825260208201905092915050565b600082825260208201905092915050565b600061204b826120f9565b9150612056836120f9565b9250827fffffffffffffffffffffffffffffffffffffffffffffffffffffffffffffffff0382111561208b5761208a6121cd565b5b828201905092915050565b60006120a1826120f9565b91506120ac836120f9565b9250826120bc576120bb6121fc565b5b828204905092915050565b60006120d2826120d9565b9050919050565b600073ffffffffffffffffffffffffffffffffffffffff82169050919050565b6000819050919050565b600060ff82169050919050565b82818337600083830152505050565b60005b8381101561213d578082015181840152602081019050612122565b8381111561214c576000848401525b50505050565b6000600282049050600182168061216a57607f821691505b6020821081141561217e5761217d61222b565b5b50919050565b600061218f826120f9565b91507fffffffffffffffffffffffffffffffffffffffffffffffffffffffffffffffff8214156121c2576121c16121cd565b5b600182019050919050565b7f4e487b7100000000000000000000000000000000000000000000000000000000600052601160045260246000fd5b7f4e487b7100000000000000000000000000000000000000000000000000000000600052601260045260246000fd5b7f4e487b7100000000000000000000000000000000000000000000000000000000600052602260045260246000fd5b7f4e487b7100000000000000000000000000000000000000000000000000000000600052604160045260246000fd5b6000601f19601f8301169050919050565b6122a3816120f9565b81146122ae57600080fd5b50565b6122ba81612103565b81146122c557600080fd5b5056fea26469706673582212207a4097fbd44284d4476b5d4d36db5d859016c65d36e8c91990577a703ec9761464736f6c63430008000033",
  "immutableReferences": {},
  "source": "// SPDX-License-Identifier: MIT\r\npragma solidity ^0.8.0;\r\n\r\ncontract ProductContract {\r\n    struct Comment {\r\n        address commenter;\r\n        string text;\r\n        uint8 rating;\r\n    }\r\n\r\n    struct Product {\r\n        uint256 id;\r\n        string name;\r\n        string description;\r\n        string imageBase64; // storing image in base64\r\n        address creator;\r\n        uint256 price;\r\n        uint256 totalRating;\r\n        uint256 ratingCount;\r\n        Comment[] comments;\r\n    }\r\n\r\n    uint256 public productCount = 0;\r\n    mapping(uint256 => Product) public products;\r\n\r\n    address public adminAddress;\r\n\r\n    event ProductAdded(uint256 id, string name);\r\n    event CommentAdded(uint256 productId, address commenter, string text, uint8 rating);\r\n    event ProductDeleted(uint256 productId);\r\n\r\n    modifier onlyAdmin() {\r\n        require(msg.sender == adminAddress, \"Only admin can call this\");\r\n        _;\r\n    }\r\n\r\n    constructor() {\r\n        adminAddress = msg.sender;  // The deployer is admin\r\n    }\r\n\r\n    // Add a new product\r\n    function addProduct(\r\n        string memory _name,\r\n        string memory _description,\r\n        string memory _imageBase64,\r\n        uint256 _price\r\n    ) public {\r\n        Product storage newProduct = products[productCount];\r\n        newProduct.id = productCount;\r\n        newProduct.name = _name;\r\n        newProduct.description = _description;\r\n        newProduct.imageBase64 = _imageBase64;\r\n        newProduct.creator = msg.sender;\r\n        newProduct.price = _price;\r\n\r\n        emit ProductAdded(productCount, _name);\r\n        productCount++;\r\n    }\r\n\r\n    // Add a comment and rating to a product\r\n    function addComment(\r\n        uint256 _productId,\r\n        string memory _text,\r\n        uint8 _rating\r\n    ) public {\r\n        require(_rating >= 1 && _rating <= 5, \"Rating must be 1-5\");\r\n        require(_productId < productCount, \"Invalid productId\");\r\n\r\n        Product storage product = products[_productId];\r\n        product.comments.push(Comment(msg.sender, _text, _rating));\r\n        product.totalRating += _rating;\r\n        product.ratingCount++;\r\n\r\n        emit CommentAdded(_productId, msg.sender, _text, _rating);\r\n    }\r\n\r\n    // Get all comments for a product\r\n    function getComments(uint256 _productId)\r\n        public\r\n        view\r\n        returns (\r\n            address[] memory commenters,\r\n            string[] memory texts,\r\n            uint8[] memory ratings\r\n        )\r\n    {\r\n        require(_productId < productCount, \"Invalid productId\");\r\n\r\n        Product storage product = products[_productId];\r\n        uint256 len = product.comments.length;\r\n\r\n        commenters = new address[](len);\r\n        texts = new string[](len);\r\n        ratings = new uint8[](len);\r\n\r\n        for (uint256 i = 0; i < len; i++) {\r\n            commenters[i] = product.comments[i].commenter;\r\n            texts[i] = product.comments[i].text;\r\n            ratings[i] = product.comments[i].rating;\r\n        }\r\n    }\r\n\r\n    // Get average rating of a product\r\n    function getAverageRating(uint256 _productId) public view returns (uint256) {\r\n        require(_productId < productCount, \"Invalid productId\");\r\n\r\n        Product storage product = products[_productId];\r\n        if (product.ratingCount == 0) return 0;\r\n        return product.totalRating / product.ratingCount;\r\n    }\r\n\r\n    // Delete product (admin only)\r\n    function deleteProduct(uint256 _productId) public onlyAdmin {\r\n        require(_productId < productCount, \"Invalid productId\");\r\n\r\n        delete products[_productId];\r\n        emit ProductDeleted(_productId);\r\n    }\r\n\r\n    // Get all products (excluding comments)\r\n    function getAllProducts()\r\n        public\r\n        view\r\n        returns (\r\n            uint256[] memory ids,\r\n            string[] memory names,\r\n            string[] memory descriptions,\r\n            string[] memory imageBase64s,\r\n            address[] memory creators,\r\n            uint256[] memory avgRatings,\r\n            uint256[] memory prices\r\n        )\r\n    {\r\n        ids = new uint256[](productCount);\r\n        names = new string[](productCount);\r\n        descriptions = new string[](productCount);\r\n        imageBase64s = new string[](productCount);\r\n        creators = new address[](productCount);\r\n        avgRatings = new uint256[](productCount);\r\n        prices = new uint256[](productCount);\r\n\r\n        for (uint256 i = 0; i < productCount; i++) {\r\n            Product storage p = products[i];\r\n            ids[i] = p.id;\r\n            names[i] = p.name;\r\n            descriptions[i] = p.description;\r\n            imageBase64s[i] = p.imageBase64;\r\n            creators[i] = p.creator;\r\n            avgRatings[i] = p.ratingCount == 0 ? 0 : (p.totalRating / p.ratingCount);\r\n            prices[i] = p.price;\r\n        }\r\n    }\r\n}\r\n",
  "sourcePath": "D:\\BDA-simple\\Blockchain-pro\\contracts\\ProductContract.sol",
  "compiler": {
    "name": "solc",
    "version": "0.8.0+commit.c7dfd78e.Emscripten.clang"
  },
  "schemaVersion": "3.4.16",
  "updatedAt": "2025-05-28T09:45:02.333Z",
  "networkType": "ethereum",
  "devdoc": {
    "kind": "dev",
    "methods": {},
    "version": 1
  },
  "userdoc": {
    "kind": "user",
    "methods": {},
    "version": 1
  }
}