{
  "contractName": "ProductContract",
  "abi": [
    {
      "inputs": [],
      "stateMutability": "nonpayable",
      "type": "constructor"
    },
    {
      "anonymous": false,
      "inputs": [
        {
          "indexed": false,
          "internalType": "uint256",
          "name": "productId",
          "type": "uint256"
        },
        {
          "indexed": false,
          "internalType": "address",
          "name": "commenter",
          "type": "address"
        },
        {
          "indexed": false,
          "internalType": "string",
          "name": "text",
          "type": "string"
        },
        {
          "indexed": false,
          "internalType": "uint8",
          "name": "rating",
          "type": "uint8"
        }
      ],
      "name": "CommentAdded",
      "type": "event"
    },
    {
      "anonymous": false,
      "inputs": [
        {
          "indexed": false,
          "internalType": "uint256",
          "name": "id",
          "type": "uint256"
        },
        {
          "indexed": false,
          "internalType": "string",
          "name": "name",
          "type": "string"
        }
      ],
      "name": "ProductAdded",
      "type": "event"
    },
    {
      "anonymous": false,
      "inputs": [
        {
          "indexed": false,
          "internalType": "uint256",
          "name": "productId",
          "type": "uint256"
        }
      ],
      "name": "ProductDeleted",
      "type": "event"
    },
    {
      "inputs": [],
      "name": "adminAddress",
      "outputs": [
        {
          "internalType": "address",
          "name": "",
          "type": "address"
        }
      ],
      "stateMutability": "view",
      "type": "function",
      "constant": true
    },
    {
      "inputs": [],
      "name": "productCount",
      "outputs": [
        {
          "internalType": "uint256",
          "name": "",
          "type": "uint256"
        }
      ],
      "stateMutability": "view",
      "type": "function",
      "constant": true
    },
    {
      "inputs": [
        {
          "internalType": "uint256",
          "name": "",
          "type": "uint256"
        }
      ],
      "name": "products",
      "outputs": [
        {
          "internalType": "uint256",
          "name": "id",
          "type": "uint256"
        },
        {
          "internalType": "string",
          "name": "name",
          "type": "string"
        },
        {
          "internalType": "string",
          "name": "description",
          "type": "string"
        },
        {
          "internalType": "string",
          "name": "imageBase64",
          "type": "string"
        },
        {
          "internalType": "address",
          "name": "creator",
          "type": "address"
        },
        {
          "internalType": "uint256",
          "name": "price",
          "type": "uint256"
        },
        {
          "internalType": "uint256",
          "name": "totalRating",
          "type": "uint256"
        },
        {
          "internalType": "uint256",
          "name": "ratingCount",
          "type": "uint256"
        },
        {
          "internalType": "bool",
          "name": "exists",
          "type": "bool"
        }
      ],
      "stateMutability": "view",
      "type": "function",
      "constant": true
    },
    {
      "inputs": [
        {
          "internalType": "string",
          "name": "_name",
          "type": "string"
        },
        {
          "internalType": "string",
          "name": "_description",
          "type": "string"
        },
        {
          "internalType": "string",
          "name": "_imageBase64",
          "type": "string"
        },
        {
          "internalType": "uint256",
          "name": "_price",
          "type": "uint256"
        }
      ],
      "name": "addProduct",
      "outputs": [],
      "stateMutability": "nonpayable",
      "type": "function"
    },
    {
      "inputs": [
        {
          "internalType": "uint256",
          "name": "_productId",
          "type": "uint256"
        },
        {
          "internalType": "string",
          "name": "_text",
          "type": "string"
        },
        {
          "internalType": "uint8",
          "name": "_rating",
          "type": "uint8"
        }
      ],
      "name": "addComment",
      "outputs": [],
      "stateMutability": "nonpayable",
      "type": "function"
    },
    {
      "inputs": [
        {
          "internalType": "uint256",
          "name": "_productId",
          "type": "uint256"
        }
      ],
      "name": "getComments",
      "outputs": [
        {
          "components": [
            {
              "internalType": "address",
              "name": "commenter",
              "type": "address"
            },
            {
              "internalType": "string",
              "name": "text",
              "type": "string"
            },
            {
              "internalType": "uint8",
              "name": "rating",
              "type": "uint8"
            }
          ],
          "internalType": "struct ProductContract.Comment[]",
          "name": "",
          "type": "tuple[]"
        }
      ],
      "stateMutability": "view",
      "type": "function",
      "constant": true
    },
    {
      "inputs": [
        {
          "internalType": "uint256",
          "name": "_productId",
          "type": "uint256"
        }
      ],
      "name": "getAverageRating",
      "outputs": [
        {
          "internalType": "uint256",
          "name": "",
          "type": "uint256"
        }
      ],
      "stateMutability": "view",
      "type": "function",
      "constant": true
    },
    {
      "inputs": [
        {
          "internalType": "uint256",
          "name": "productId",
          "type": "uint256"
        }
      ],
      "name": "deleteProduct",
      "outputs": [],
      "stateMutability": "nonpayable",
      "type": "function"
    },
    {
      "inputs": [],
      "name": "getAllProducts",
      "outputs": [
        {
          "internalType": "uint256[]",
          "name": "ids",
          "type": "uint256[]"
        },
        {
          "internalType": "string[]",
          "name": "names",
          "type": "string[]"
        },
        {
          "internalType": "string[]",
          "name": "descriptions",
          "type": "string[]"
        },
        {
          "internalType": "string[]",
          "name": "imageBase64s",
          "type": "string[]"
        },
        {
          "internalType": "address[]",
          "name": "creators",
          "type": "address[]"
        },
        {
          "internalType": "uint256[]",
          "name": "avgRatings",
          "type": "uint256[]"
        },
        {
          "internalType": "uint256[]",
          "name": "prices",
          "type": "uint256[]"
        }
      ],
      "stateMutability": "view",
      "type": "function",
      "constant": true
    }
  ],
  "bytecode": "0x60806040526000805534801561001457600080fd5b5033600260006101000a81548173ffffffffffffffffffffffffffffffffffffffff021916908373ffffffffffffffffffffffffffffffffffffffff16021790555061219b806100656000396000f3fe608060405234801561001057600080fd5b50600436106100935760003560e01c80637acc0b20116100665780637acc0b20146101385780638165fed514610170578063e0f6ef871461018c578063ed90c7b7146101aa578063fc6f9468146101c657610093565b806302ee3a521461009857806317b7e03e146100bc57806323edf697146100ec57806344b762691461011c575b600080fd5b6100a06101e4565b6040516100b39796959493929190611b26565b60405180910390f35b6100d660048036038101906100d19190611670565b6109fc565b6040516100e39190611c26565b60405180910390f35b61010660048036038101906101019190611670565b610aef565b6040516101139190611b04565b60405180910390f35b61013660048036038101906101319190611699565b610ccc565b005b610152600480360381019061014d9190611670565b610f44565b60405161016799989796959493929190611cbd565b60405180910390f35b61018a600480360381019061018591906115c5565b611157565b005b610194611287565b6040516101a19190611c26565b60405180910390f35b6101c460048036038101906101bf9190611670565b61128d565b005b6101ce6113a4565b6040516101db9190611ae9565b60405180910390f35b60608060608060608060606000805b600054811015610248576001600082815260200190815260200160002060090160009054906101000a900460ff161561023557818061023190612021565b9250505b808061024090612021565b9150506101f3565b508067ffffffffffffffff811115610289577f4e487b7100000000000000000000000000000000000000000000000000000000600052604160045260246000fd5b6040519080825280602002602001820160405280156102b75781602001602082028036833780820191505090505b5097508067ffffffffffffffff8111156102fa577f4e487b7100000000000000000000000000000000000000000000000000000000600052604160045260246000fd5b60405190808252806020026020018201604052801561032d57816020015b60608152602001906001900390816103185790505b5096508067ffffffffffffffff811115610370577f4e487b7100000000000000000000000000000000000000000000000000000000600052604160045260246000fd5b6040519080825280602002602001820160405280156103a357816020015b606081526020019060019003908161038e5790505b5095508067ffffffffffffffff8111156103e6577f4e487b7100000000000000000000000000000000000000000000000000000000600052604160045260246000fd5b60405190808252806020026020018201604052801561041957816020015b60608152602001906001900390816104045790505b5094508067ffffffffffffffff81111561045c577f4e487b7100000000000000000000000000000000000000000000000000000000600052604160045260246000fd5b60405190808252806020026020018201604052801561048a5781602001602082028036833780820191505090505b5093508067ffffffffffffffff8111156104cd577f4e487b7100000000000000000000000000000000000000000000000000000000600052604160045260246000fd5b6040519080825280602002602001820160405280156104fb5781602001602082028036833780820191505090505b5092508067ffffffffffffffff81111561053e577f4e487b7100000000000000000000000000000000000000000000000000000000600052604160045260246000fd5b60405190808252806020026020018201604052801561056c5781602001602082028036833780820191505090505b5091506000805b6000548110156109f0576001600082815260200190815260200160002060090160009054906101000a900460ff166105aa576109dd565b600060016000838152602001908152602001600020905080600001548b84815181106105ff577f4e487b7100000000000000000000000000000000000000000000000000000000600052603260045260246000fd5b60200260200101818152505080600101805461061a90611fef565b80601f016020809104026020016040519081016040528092919081815260200182805461064690611fef565b80156106935780601f1061066857610100808354040283529160200191610693565b820191906000526020600020905b81548152906001019060200180831161067657829003601f168201915b50505050508a84815181106106d1577f4e487b7100000000000000000000000000000000000000000000000000000000600052603260045260246000fd5b60200260200101819052508060020180546106eb90611fef565b80601f016020809104026020016040519081016040528092919081815260200182805461071790611fef565b80156107645780601f1061073957610100808354040283529160200191610764565b820191906000526020600020905b81548152906001019060200180831161074757829003601f168201915b50505050508984815181106107a2577f4e487b7100000000000000000000000000000000000000000000000000000000600052603260045260246000fd5b60200260200101819052508060030180546107bc90611fef565b80601f01602080910402602001604051908101604052809291908181526020018280546107e890611fef565b80156108355780601f1061080a57610100808354040283529160200191610835565b820191906000526020600020905b81548152906001019060200180831161081857829003601f168201915b5050505050888481518110610873577f4e487b7100000000000000000000000000000000000000000000000000000000600052603260045260246000fd5b60200260200101819052508060040160009054906101000a900473ffffffffffffffffffffffffffffffffffffffff168784815181106108dc577f4e487b7100000000000000000000000000000000000000000000000000000000600052603260045260246000fd5b602002602001019073ffffffffffffffffffffffffffffffffffffffff16908173ffffffffffffffffffffffffffffffffffffffff1681525050600081600701541461093b57806007015481600601546109369190611f27565b61093e565b60005b868481518110610977577f4e487b7100000000000000000000000000000000000000000000000000000000600052603260045260246000fd5b60200260200101818152505080600501548584815181106109c1577f4e487b7100000000000000000000000000000000000000000000000000000000600052603260045260246000fd5b60200260200101818152505082806109d890612021565b935050505b80806109e890612021565b915050610573565b50505090919293949596565b600080548210610a41576040517f08c379a0000000000000000000000000000000000000000000000000000000008152600401610a3890611be6565b60405180910390fd5b6001600083815260200190815260200160002060090160009054906101000a900460ff16610aa4576040517f08c379a0000000000000000000000000000000000000000000000000000000008152600401610a9b90611bc6565b60405180910390fd5b6000600160008481526020019081526020016000209050600081600701541415610ad2576000915050610aea565b80600701548160060154610ae69190611f27565b9150505b919050565b60606001600083815260200190815260200160002060090160009054906101000a900460ff16610b54576040517f08c379a0000000000000000000000000000000000000000000000000000000008152600401610b4b90611bc6565b60405180910390fd5b60016000838152602001908152602001600020600801805480602002602001604051908101604052809291908181526020016000905b82821015610cc157838290600052602060002090600302016040518060600160405290816000820160009054906101000a900473ffffffffffffffffffffffffffffffffffffffff1673ffffffffffffffffffffffffffffffffffffffff1673ffffffffffffffffffffffffffffffffffffffff168152602001600182018054610c1390611fef565b80601f0160208091040260200160405190810160405280929190818152602001828054610c3f90611fef565b8015610c8c5780601f10610c6157610100808354040283529160200191610c8c565b820191906000526020600020905b815481529060010190602001808311610c6f57829003601f168201915b505050505081526020016002820160009054906101000a900460ff1660ff1660ff168152505081526020019060010190610b8a565b505050509050919050565b60018160ff1610158015610ce4575060058160ff1611155b610d23576040517f08c379a0000000000000000000000000000000000000000000000000000000008152600401610d1a90611c06565b60405180910390fd5b6000548310610d67576040517f08c379a0000000000000000000000000000000000000000000000000000000008152600401610d5e90611be6565b60405180910390fd5b6001600084815260200190815260200160002060090160009054906101000a900460ff16610dca576040517f08c379a0000000000000000000000000000000000000000000000000000000008152600401610dc190611bc6565b60405180910390fd5b60006001600085815260200190815260200160002090508060080160405180606001604052803373ffffffffffffffffffffffffffffffffffffffff1681526020018581526020018460ff16815250908060018154018082558091505060019003906000526020600020906003020160009091909190915060008201518160000160006101000a81548173ffffffffffffffffffffffffffffffffffffffff021916908373ffffffffffffffffffffffffffffffffffffffff1602179055506020820151816001019080519060200190610ea59291906113ca565b5060408201518160020160006101000a81548160ff021916908360ff16021790555050508160ff16816006016000828254610ee09190611ed1565b92505081905550806007016000815480929190610efc90612021565b91905055507f5a946ef60f5f27729c43db6534cb1d7e8b00a87b6b6e9687541625b36238970384338585604051610f369493929190611c41565b60405180910390a150505050565b6001602052806000526040600020600091509050806000015490806001018054610f6d90611fef565b80601f0160208091040260200160405190810160405280929190818152602001828054610f9990611fef565b8015610fe65780601f10610fbb57610100808354040283529160200191610fe6565b820191906000526020600020905b815481529060010190602001808311610fc957829003601f168201915b505050505090806002018054610ffb90611fef565b80601f016020809104026020016040519081016040528092919081815260200182805461102790611fef565b80156110745780601f1061104957610100808354040283529160200191611074565b820191906000526020600020905b81548152906001019060200180831161105757829003601f168201915b50505050509080600301805461108990611fef565b80601f01602080910402602001604051908101604052809291908181526020018280546110b590611fef565b80156111025780601f106110d757610100808354040283529160200191611102565b820191906000526020600020905b8154815290600101906020018083116110e557829003601f168201915b5050505050908060040160009054906101000a900473ffffffffffffffffffffffffffffffffffffffff16908060050154908060060154908060070154908060090160009054906101000a900460ff16905089565b6000600160008054815260200190815260200160002090506000548160000181905550848160010190805190602001906111929291906113ca565b50838160020190805190602001906111ab9291906113ca565b50828160030190805190602001906111c49291906113ca565b50338160040160006101000a81548173ffffffffffffffffffffffffffffffffffffffff021916908373ffffffffffffffffffffffffffffffffffffffff16021790555081816005018190555060018160090160006101000a81548160ff0219169083151502179055507f259101de1f87b04b9ee0332ce5e3cc508014004bf283424aead6cd8692f5cf9860005486604051611261929190611c8d565b60405180910390a160008081548092919061127b90612021565b91905055505050505050565b60005481565b6001600082815260200190815260200160002060090160009054906101000a900460ff166112f0576040517f08c379a00000000000000000000000000000000000000000000000000000000081526004016112e790611bc6565b60405180910390fd5b6001600082815260200190815260200160002060008082016000905560018201600061131c9190611450565b60028201600061132c9190611450565b60038201600061133c9190611450565b6004820160006101000a81549073ffffffffffffffffffffffffffffffffffffffff021916905560058201600090556006820160009055600782016000905560088201600061138b9190611490565b6009820160006101000a81549060ff0219169055505050565b600260009054906101000a900473ffffffffffffffffffffffffffffffffffffffff1681565b8280546113d690611fef565b90600052602060002090601f0160209004810192826113f8576000855561143f565b82601f1061141157805160ff191683800117855561143f565b8280016001018555821561143f579182015b8281111561143e578251825591602001919060010190611423565b5b50905061144c91906114b4565b5090565b50805461145c90611fef565b6000825580601f1061146e575061148d565b601f01602090049060005260206000209081019061148c91906114b4565b5b50565b50805460008255600302906000526020600020908101906114b191906114d1565b50565b5b808211156114cd5760008160009055506001016114b5565b5090565b5b8082111561152f57600080820160006101000a81549073ffffffffffffffffffffffffffffffffffffffff02191690556001820160006115129190611450565b6002820160006101000a81549060ff0219169055506003016114d2565b5090565b600061154661154184611d90565b611d5f565b90508281526020810184848401111561155e57600080fd5b611569848285611fad565b509392505050565b600082601f83011261158257600080fd5b8135611592848260208601611533565b91505092915050565b6000813590506115aa81612137565b92915050565b6000813590506115bf8161214e565b92915050565b600080600080608085870312156115db57600080fd5b600085013567ffffffffffffffff8111156115f557600080fd5b61160187828801611571565b945050602085013567ffffffffffffffff81111561161e57600080fd5b61162a87828801611571565b935050604085013567ffffffffffffffff81111561164757600080fd5b61165387828801611571565b92505060606116648782880161159b565b91505092959194509250565b60006020828403121561168257600080fd5b60006116908482850161159b565b91505092915050565b6000806000606084860312156116ae57600080fd5b60006116bc8682870161159b565b935050602084013567ffffffffffffffff8111156116d957600080fd5b6116e586828701611571565b92505060406116f6868287016115b0565b9150509250925092565b600061170c8383611758565b60208301905092915050565b6000611724838361192b565b905092915050565b60006117388383611a5d565b905092915050565b600061174c8383611aad565b60208301905092915050565b61176181611f58565b82525050565b61177081611f58565b82525050565b600061178182611e00565b61178b8185611e6b565b935061179683611dc0565b8060005b838110156117c75781516117ae8882611700565b97506117b983611e37565b92505060018101905061179a565b5085935050505092915050565b60006117df82611e0b565b6117e98185611e7c565b9350836020820285016117fb85611dd0565b8060005b8581101561183757848403895281516118188582611718565b945061182383611e44565b925060208a019950506001810190506117ff565b50829750879550505050505092915050565b600061185482611e16565b61185e8185611e8d565b93508360208202850161187085611de0565b8060005b858110156118ac578484038952815161188d858261172c565b945061189883611e51565b925060208a01995050600181019050611874565b50829750879550505050505092915050565b60006118c982611e21565b6118d38185611e9e565b93506118de83611df0565b8060005b8381101561190f5781516118f68882611740565b975061190183611e5e565b9250506001810190506118e2565b5085935050505092915050565b61192581611f6a565b82525050565b600061193682611e2c565b6119408185611eaf565b9350611950818560208601611fbc565b61195981612126565b840191505092915050565b600061196f82611e2c565b6119798185611ec0565b9350611989818560208601611fbc565b61199281612126565b840191505092915050565b60006119aa601683611ec0565b91507f50726f6475637420646f6573206e6f74206578697374000000000000000000006000830152602082019050919050565b60006119ea601183611ec0565b91507f496e76616c69642070726f6475637449640000000000000000000000000000006000830152602082019050919050565b6000611a2a601283611ec0565b91507f526174696e67206d75737420626520312d3500000000000000000000000000006000830152602082019050919050565b6000606083016000830151611a756000860182611758565b5060208301518482036020860152611a8d828261192b565b9150506040830151611aa26040860182611acb565b508091505092915050565b611ab681611f96565b82525050565b611ac581611f96565b82525050565b611ad481611fa0565b82525050565b611ae381611fa0565b82525050565b6000602082019050611afe6000830184611767565b92915050565b60006020820190508181036000830152611b1e8184611849565b905092915050565b600060e0820190508181036000830152611b40818a6118be565b90508181036020830152611b5481896117d4565b90508181036040830152611b6881886117d4565b90508181036060830152611b7c81876117d4565b90508181036080830152611b908186611776565b905081810360a0830152611ba481856118be565b905081810360c0830152611bb881846118be565b905098975050505050505050565b60006020820190508181036000830152611bdf8161199d565b9050919050565b60006020820190508181036000830152611bff816119dd565b9050919050565b60006020820190508181036000830152611c1f81611a1d565b9050919050565b6000602082019050611c3b6000830184611abc565b92915050565b6000608082019050611c566000830187611abc565b611c636020830186611767565b8181036040830152611c758185611964565b9050611c846060830184611ada565b95945050505050565b6000604082019050611ca26000830185611abc565b8181036020830152611cb48184611964565b90509392505050565b600061012082019050611cd3600083018c611abc565b8181036020830152611ce5818b611964565b90508181036040830152611cf9818a611964565b90508181036060830152611d0d8189611964565b9050611d1c6080830188611767565b611d2960a0830187611abc565b611d3660c0830186611abc565b611d4360e0830185611abc565b611d5161010083018461191c565b9a9950505050505050505050565b6000604051905081810181811067ffffffffffffffff82111715611d8657611d856120f7565b5b8060405250919050565b600067ffffffffffffffff821115611dab57611daa6120f7565b5b601f19601f8301169050602081019050919050565b6000819050602082019050919050565b6000819050602082019050919050565b6000819050602082019050919050565b6000819050602082019050919050565b600081519050919050565b600081519050919050565b600081519050919050565b600081519050919050565b600081519050919050565b6000602082019050919050565b6000602082019050919050565b6000602082019050919050565b6000602082019050919050565b600082825260208201905092915050565b600082825260208201905092915050565b600082825260208201905092915050565b600082825260208201905092915050565b600082825260208201905092915050565b600082825260208201905092915050565b6000611edc82611f96565b9150611ee783611f96565b9250827fffffffffffffffffffffffffffffffffffffffffffffffffffffffffffffffff03821115611f1c57611f1b61206a565b5b828201905092915050565b6000611f3282611f96565b9150611f3d83611f96565b925082611f4d57611f4c612099565b5b828204905092915050565b6000611f6382611f76565b9050919050565b60008115159050919050565b600073ffffffffffffffffffffffffffffffffffffffff82169050919050565b6000819050919050565b600060ff82169050919050565b82818337600083830152505050565b60005b83811015611fda578082015181840152602081019050611fbf565b83811115611fe9576000848401525b50505050565b6000600282049050600182168061200757607f821691505b6020821081141561201b5761201a6120c8565b5b50919050565b600061202c82611f96565b91507fffffffffffffffffffffffffffffffffffffffffffffffffffffffffffffffff82141561205f5761205e61206a565b5b600182019050919050565b7f4e487b7100000000000000000000000000000000000000000000000000000000600052601160045260246000fd5b7f4e487b7100000000000000000000000000000000000000000000000000000000600052601260045260246000fd5b7f4e487b7100000000000000000000000000000000000000000000000000000000600052602260045260246000fd5b7f4e487b7100000000000000000000000000000000000000000000000000000000600052604160045260246000fd5b6000601f19601f8301169050919050565b61214081611f96565b811461214b57600080fd5b50565b61215781611fa0565b811461216257600080fd5b5056fea26469706673582212206388febe52c4af5b47bd9d91cf68f417a19a8ed64771b4b95dc87ff2f389082964736f6c63430008000033",
  "immutableReferences": {},
  "source": "// SPDX-License-Identifier: MIT\r\npragma solidity ^0.8.0;\r\n\r\ncontract ProductContract {\r\n    struct Comment {\r\n        address commenter;\r\n        string text;\r\n        uint8 rating;\r\n    }\r\n\r\n    struct Product {\r\n        uint256 id;\r\n        string name;\r\n        string description;\r\n        string imageBase64; // storing image in base64\r\n        address creator;\r\n        uint256 price;\r\n        uint256 totalRating;\r\n        uint256 ratingCount;\r\n        Comment[] comments;\r\n        bool exists;  // NEW FIELD to track deleted products\r\n    }\r\n\r\n    uint256 public productCount = 0;\r\n    mapping(uint256 => Product) public products;\r\n\r\n    address public adminAddress;\r\n\r\n    event ProductAdded(uint256 id, string name);\r\n    event CommentAdded(uint256 productId, address commenter, string text, uint8 rating);\r\n    event ProductDeleted(uint256 productId);\r\n\r\n    modifier onlyAdmin() {\r\n        require(msg.sender == adminAddress, \"Only admin can call this\");\r\n        _;\r\n    }\r\n\r\n    constructor() {\r\n        adminAddress = msg.sender;  // The deployer is admin\r\n    }\r\n\r\n    // Add a new product\r\n    function addProduct(\r\n        string memory _name,\r\n        string memory _description,\r\n        string memory _imageBase64,\r\n        uint256 _price\r\n    ) public {\r\n        Product storage newProduct = products[productCount];\r\n        newProduct.id = productCount;\r\n        newProduct.name = _name;\r\n        newProduct.description = _description;\r\n        newProduct.imageBase64 = _imageBase64;\r\n        newProduct.creator = msg.sender;\r\n        newProduct.price = _price;\r\n        newProduct.exists = true;\r\n\r\n        emit ProductAdded(productCount, _name);\r\n        productCount++;\r\n    }\r\n\r\n    // Add a comment and rating to a product\r\n    function addComment(\r\n        uint256 _productId,\r\n        string memory _text,\r\n        uint8 _rating\r\n    ) public {\r\n        require(_rating >= 1 && _rating <= 5, \"Rating must be 1-5\");\r\n        require(_productId < productCount, \"Invalid productId\");\r\n        require(products[_productId].exists, \"Product does not exist\");\r\n\r\n        Product storage product = products[_productId];\r\n        product.comments.push(Comment(msg.sender, _text, _rating));\r\n        product.totalRating += _rating;\r\n        product.ratingCount++;\r\n\r\n        emit CommentAdded(_productId, msg.sender, _text, _rating);\r\n    }\r\n\r\n    // Get all comments for a product\r\n    function getComments(uint256 _productId) public view returns (Comment[] memory) {\r\n        require(products[_productId].exists, \"Product does not exist\");\r\n        return products[_productId].comments;\r\n    }\r\n\r\n    // Get average rating of a product\r\n    function getAverageRating(uint256 _productId) public view returns (uint256) {\r\n        require(_productId < productCount, \"Invalid productId\");\r\n        require(products[_productId].exists, \"Product does not exist\");\r\n\r\n        Product storage product = products[_productId];\r\n        if (product.ratingCount == 0) return 0;\r\n        return product.totalRating / product.ratingCount;\r\n    }\r\n\r\n    // Delete product (admin only)\r\n    function deleteProduct(uint256 productId) public {\r\n    require(products[productId].exists, \"Product does not exist\");\r\n    delete products[productId];\r\n    }\r\n\r\n\r\n    // Get all existing (non-deleted) products\r\n    function getAllProducts()\r\n        public\r\n        view\r\n        returns (\r\n            uint256[] memory ids,\r\n            string[] memory names,\r\n            string[] memory descriptions,\r\n            string[] memory imageBase64s,\r\n            address[] memory creators,\r\n            uint256[] memory avgRatings,\r\n            uint256[] memory prices\r\n        )\r\n    {\r\n        uint256 validCount = 0;\r\n\r\n        // First pass: count valid products\r\n        for (uint256 i = 0; i < productCount; i++) {\r\n            if (products[i].exists) validCount++;\r\n        }\r\n\r\n        // Initialize arrays\r\n        ids = new uint256[](validCount);\r\n        names = new string[](validCount);\r\n        descriptions = new string[](validCount);\r\n        imageBase64s = new string[](validCount);\r\n        creators = new address[](validCount);\r\n        avgRatings = new uint256[](validCount);\r\n        prices = new uint256[](validCount);\r\n\r\n        // Second pass: fill arrays\r\n        uint256 index = 0;\r\n        for (uint256 i = 0; i < productCount; i++) {\r\n            if (!products[i].exists) continue;\r\n\r\n            Product storage p = products[i];\r\n            ids[index] = p.id;\r\n            names[index] = p.name;\r\n            descriptions[index] = p.description;\r\n            imageBase64s[index] = p.imageBase64;\r\n            creators[index] = p.creator;\r\n            avgRatings[index] = p.ratingCount == 0 ? 0 : (p.totalRating / p.ratingCount);\r\n            prices[index] = p.price;\r\n            index++;\r\n        }\r\n    }\r\n}\r\n",
  "sourcePath": "D:\\BDA-simple\\Blockchain-pro\\contracts\\ProductContract.sol",
  "compiler": {
    "name": "solc",
    "version": "0.8.0+commit.c7dfd78e.Emscripten.clang"
  },
  "schemaVersion": "3.4.16",
  "updatedAt": "2025-05-28T11:10:49.176Z",
  "networkType": "ethereum",
  "devdoc": {
    "kind": "dev",
    "methods": {},
    "version": 1
  },
  "userdoc": {
    "kind": "user",
    "methods": {},
    "version": 1
  }
}